{"contracts/EVoting.sol":{"EVoting":{"abi":[{"inputs":[{"internalType":"uint256","name":"durationInMinutes","type":"uint256"},{"internalType":"uint256[]","name":"candidateIds","type":"uint256[]"},{"internalType":"string[]","name":"names","type":"string[]"},{"internalType":"string[]","name":"positions","type":"string[]"},{"internalType":"string[]","name":"departments","type":"string[]"},{"internalType":"string[]","name":"academicYears","type":"string[]"}],"stateMutability":"nonpayable","type":"constructor"},{"inputs":[{"internalType":"address","name":"owner","type":"address"}],"name":"OwnableInvalidOwner","type":"error"},{"inputs":[{"internalType":"address","name":"account","type":"address"}],"name":"OwnableUnauthorizedAccount","type":"error"},{"anonymous":false,"inputs":[{"indexed":false,"internalType":"uint256","name":"id","type":"uint256"},{"indexed":false,"internalType":"string","name":"name","type":"string"}],"name":"CandidateAdded","type":"event"},{"anonymous":false,"inputs":[{"indexed":true,"internalType":"address","name":"previousOwner","type":"address"},{"indexed":true,"internalType":"address","name":"newOwner","type":"address"}],"name":"OwnershipTransferred","type":"event"},{"anonymous":false,"inputs":[{"indexed":false,"internalType":"uint256","name":"uniqueNumber","type":"uint256"}],"name":"VoteCasted","type":"event"},{"anonymous":false,"inputs":[],"name":"VotingEnded","type":"event"},{"anonymous":false,"inputs":[{"indexed":false,"internalType":"uint256","name":"startTime","type":"uint256"},{"indexed":false,"internalType":"uint256","name":"endTime","type":"uint256"}],"name":"VotingStarted","type":"event"},{"inputs":[{"internalType":"uint256","name":"","type":"uint256"}],"name":"candidates","outputs":[{"internalType":"uint256","name":"id","type":"uint256"},{"internalType":"string","name":"name","type":"string"},{"internalType":"string","name":"position","type":"string"},{"internalType":"string","name":"department","type":"string"},{"internalType":"string","name":"year","type":"string"}],"stateMutability":"view","type":"function"},{"inputs":[{"internalType":"string","name":"email","type":"string"},{"internalType":"uint256","name":"candidateId","type":"uint256"}],"name":"castVote","outputs":[],"stateMutability":"nonpayable","type":"function"},{"inputs":[],"name":"endVoting","outputs":[],"stateMutability":"nonpayable","type":"function"},{"inputs":[],"name":"getAllVoterEmails","outputs":[{"internalType":"string[]","name":"","type":"string[]"}],"stateMutability":"view","type":"function"},{"inputs":[],"name":"getCandidateCount","outputs":[{"internalType":"uint256","name":"","type":"uint256"}],"stateMutability":"view","type":"function"},{"inputs":[{"internalType":"uint256","name":"candidateId","type":"uint256"}],"name":"getCandidateUniqueNumbers","outputs":[{"internalType":"uint256[]","name":"","type":"uint256[]"}],"stateMutability":"view","type":"function"},{"inputs":[{"internalType":"uint256","name":"candidateId","type":"uint256"}],"name":"getCandidateVotes","outputs":[{"internalType":"uint256","name":"","type":"uint256"}],"stateMutability":"view","type":"function"},{"inputs":[],"name":"getCandidates","outputs":[{"components":[{"internalType":"uint256","name":"id","type":"uint256"},{"internalType":"string","name":"name","type":"string"},{"internalType":"string","name":"position","type":"string"},{"internalType":"string","name":"department","type":"string"},{"internalType":"string","name":"year","type":"string"}],"internalType":"struct EVoting.Candidate[]","name":"","type":"tuple[]"}],"stateMutability":"view","type":"function"},{"inputs":[],"name":"getRemainingTime","outputs":[{"internalType":"uint256","name":"","type":"uint256"}],"stateMutability":"view","type":"function"},{"inputs":[{"internalType":"string","name":"","type":"string"}],"name":"hasVoted","outputs":[{"internalType":"bool","name":"","type":"bool"}],"stateMutability":"view","type":"function"},{"inputs":[],"name":"isVotingActive","outputs":[{"internalType":"bool","name":"","type":"bool"}],"stateMutability":"view","type":"function"},{"inputs":[],"name":"owner","outputs":[{"internalType":"address","name":"","type":"address"}],"stateMutability":"view","type":"function"},{"inputs":[],"name":"renounceOwnership","outputs":[],"stateMutability":"nonpayable","type":"function"},{"inputs":[{"internalType":"address","name":"newOwner","type":"address"}],"name":"transferOwnership","outputs":[],"stateMutability":"nonpayable","type":"function"},{"inputs":[{"internalType":"uint256","name":"","type":"uint256"}],"name":"validCandidateIds","outputs":[{"internalType":"bool","name":"","type":"bool"}],"stateMutability":"view","type":"function"},{"inputs":[{"internalType":"uint256","name":"","type":"uint256"}],"name":"voterEmails","outputs":[{"internalType":"string","name":"","type":"string"}],"stateMutability":"view","type":"function"},{"inputs":[],"name":"votingInfo","outputs":[{"internalType":"uint256","name":"startTime","type":"uint256"},{"internalType":"uint256","name":"endTime","type":"uint256"},{"internalType":"bool","name":"isActive","type":"bool"},{"internalType":"uint256","name":"totalVotes","type":"uint256"}],"stateMutability":"view","type":"function"}],"evm":{"bytecode":{"linkReferences":{},"object":"60806040523480156200001157600080fd5b50604051620032bc380380620032bc83398181016040528101906200003791906200086b565b33600073ffffffffffffffffffffffffffffffffffffffff168173ffffffffffffffffffffffffffffffffffffffff1603620000ad5760006040517f1e4fbdf7000000000000000000000000000000000000000000000000000000008152600401620000a49190620009e7565b60405180910390fd5b620000be816200040760201b60201c565b5083518551148015620000d2575082518451145b8015620000e0575081518351145b8015620000ee575080518251145b62000130576040517f08c379a0000000000000000000000000000000000000000000000000000000008152600401620001279062000a65565b60405180910390fd5b42600160000181905550603c8662000149919062000ab6565b4262000156919062000b01565b600180018190555060018060020160006101000a81548160ff021916908315150217905550600060016003018190555060005b8551811015620003b65760086040518060a00160405280888481518110620001b657620001b562000b3c565b5b60200260200101518152602001878481518110620001d957620001d862000b3c565b5b60200260200101518152602001868481518110620001fc57620001fb62000b3c565b5b602002602001015181526020018584815181106200021f576200021e62000b3c565b5b6020026020010151815260200184848151811062000242576200024162000b3c565b5b6020026020010151815250908060018154018082558091505060019003906000526020600020906005020160009091909190915060008201518160000155602082015181600101908162000297919062000dac565b506040820151816002019081620002af919062000dac565b506060820151816003019081620002c7919062000dac565b506080820151816004019081620002df919062000dac565b505050600160096000888481518110620002fe57620002fd62000b3c565b5b6020026020010151815260200190815260200160002060006101000a81548160ff0219169083151502179055507fe83b2a43e7e82d975c8a0a6d2f045153c869e111136a34d1889ab7b598e396a386828151811062000362576200036162000b3c565b5b602002602001015186838151811062000380576200037f62000b3c565b5b60200260200101516040516200039892919062000ee5565b60405180910390a18080620003ad9062000f19565b91505062000189565b507ff8c022056754dbacca05aff710dc315a2fa7699ae9309fda403cd1e55c11d40f6001600001546001800154604051620003f392919062000f66565b60405180910390a150505050505062000f93565b60008060009054906101000a900473ffffffffffffffffffffffffffffffffffffffff169050816000806101000a81548173ffffffffffffffffffffffffffffffffffffffff021916908373ffffffffffffffffffffffffffffffffffffffff1602179055508173ffffffffffffffffffffffffffffffffffffffff168173ffffffffffffffffffffffffffffffffffffffff167f8be0079c531659141344cd1fd0a4f28419497f9722a3daafe3b4186f6b6457e060405160405180910390a35050565b6000604051905090565b600080fd5b600080fd5b6000819050919050565b620004f481620004df565b81146200050057600080fd5b50565b6000815190506200051481620004e9565b92915050565b600080fd5b6000601f19601f8301169050919050565b7f4e487b7100000000000000000000000000000000000000000000000000000000600052604160045260246000fd5b6200056a826200051f565b810181811067ffffffffffffffff821117156200058c576200058b62000530565b5b80604052505050565b6000620005a1620004cb565b9050620005af82826200055f565b919050565b600067ffffffffffffffff821115620005d257620005d162000530565b5b602082029050602081019050919050565b600080fd5b6000620005ff620005f984620005b4565b62000595565b90508083825260208201905060208402830185811115620006255762000624620005e3565b5b835b818110156200065257806200063d888262000503565b84526020840193505060208101905062000627565b5050509392505050565b600082601f8301126200067457620006736200051a565b5b815162000686848260208601620005e8565b91505092915050565b600067ffffffffffffffff821115620006ad57620006ac62000530565b5b602082029050602081019050919050565b600080fd5b600067ffffffffffffffff821115620006e157620006e062000530565b5b620006ec826200051f565b9050602081019050919050565b60005b8381101562000719578082015181840152602081019050620006fc565b60008484015250505050565b60006200073c6200073684620006c3565b62000595565b9050828152602081018484840111156200075b576200075a620006be565b5b62000768848285620006f9565b509392505050565b600082601f8301126200078857620007876200051a565b5b81516200079a84826020860162000725565b91505092915050565b6000620007ba620007b4846200068f565b62000595565b90508083825260208201905060208402830185811115620007e057620007df620005e3565b5b835b818110156200082e57805167ffffffffffffffff8111156200080957620008086200051a565b5b80860162000818898262000770565b85526020850194505050602081019050620007e2565b5050509392505050565b600082601f83011262000850576200084f6200051a565b5b815162000862848260208601620007a3565b91505092915050565b60008060008060008060c087890312156200088b576200088a620004d5565b5b60006200089b89828a0162000503565b965050602087015167ffffffffffffffff811115620008bf57620008be620004da565b5b620008cd89828a016200065c565b955050604087015167ffffffffffffffff811115620008f157620008f0620004da565b5b620008ff89828a0162000838565b945050606087015167ffffffffffffffff811115620009235762000922620004da565b5b6200093189828a0162000838565b935050608087015167ffffffffffffffff811115620009555762000954620004da565b5b6200096389828a0162000838565b92505060a087015167ffffffffffffffff811115620009875762000986620004da565b5b6200099589828a0162000838565b9150509295509295509295565b600073ffffffffffffffffffffffffffffffffffffffff82169050919050565b6000620009cf82620009a2565b9050919050565b620009e181620009c2565b82525050565b6000602082019050620009fe6000830184620009d6565b92915050565b600082825260208201905092915050565b7f417272617973206c656e677468206d69736d6174636800000000000000000000600082015250565b600062000a4d60168362000a04565b915062000a5a8262000a15565b602082019050919050565b6000602082019050818103600083015262000a808162000a3e565b9050919050565b7f4e487b7100000000000000000000000000000000000000000000000000000000600052601160045260246000fd5b600062000ac382620004df565b915062000ad083620004df565b925082820262000ae081620004df565b9150828204841483151762000afa5762000af962000a87565b5b5092915050565b600062000b0e82620004df565b915062000b1b83620004df565b925082820190508082111562000b365762000b3562000a87565b5b92915050565b7f4e487b7100000000000000000000000000000000000000000000000000000000600052603260045260246000fd5b600081519050919050565b7f4e487b7100000000000000000000000000000000000000000000000000000000600052602260045260246000fd5b6000600282049050600182168062000bbe57607f821691505b60208210810362000bd45762000bd362000b76565b5b50919050565b60008190508160005260206000209050919050565b60006020601f8301049050919050565b600082821b905092915050565b60006008830262000c3e7fffffffffffffffffffffffffffffffffffffffffffffffffffffffffffffffff8262000bff565b62000c4a868362000bff565b95508019841693508086168417925050509392505050565b6000819050919050565b600062000c8d62000c8762000c8184620004df565b62000c62565b620004df565b9050919050565b6000819050919050565b62000ca98362000c6c565b62000cc162000cb88262000c94565b84845462000c0c565b825550505050565b600090565b62000cd862000cc9565b62000ce581848462000c9e565b505050565b5b8181101562000d0d5762000d0160008262000cce565b60018101905062000ceb565b5050565b601f82111562000d5c5762000d268162000bda565b62000d318462000bef565b8101602085101562000d41578190505b62000d5962000d508562000bef565b83018262000cea565b50505b505050565b600082821c905092915050565b600062000d816000198460080262000d61565b1980831691505092915050565b600062000d9c838362000d6e565b9150826002028217905092915050565b62000db78262000b6b565b67ffffffffffffffff81111562000dd35762000dd262000530565b5b62000ddf825462000ba5565b62000dec82828562000d11565b600060209050601f83116001811462000e24576000841562000e0f578287015190505b62000e1b858262000d8e565b86555062000e8b565b601f19841662000e348662000bda565b60005b8281101562000e5e5784890151825560018201915060208501945060208101905062000e37565b8683101562000e7e578489015162000e7a601f89168262000d6e565b8355505b6001600288020188555050505b505050505050565b62000e9e81620004df565b82525050565b600062000eb18262000b6b565b62000ebd818562000a04565b935062000ecf818560208601620006f9565b62000eda816200051f565b840191505092915050565b600060408201905062000efc600083018562000e93565b818103602083015262000f10818462000ea4565b90509392505050565b600062000f2682620004df565b91507fffffffffffffffffffffffffffffffffffffffffffffffffffffffffffffffff820362000f5b5762000f5a62000a87565b5b600182019050919050565b600060408201905062000f7d600083018562000e93565b62000f8c602083018462000e93565b9392505050565b6123198062000fa36000396000f3fe608060405234801561001057600080fd5b506004361061010b5760003560e01c8063866163c0116100a2578063c3403ddf11610071578063c3403ddf146102d7578063e3b9e2fa146102e1578063eed62371146102fd578063efb98bcf1461031b578063f2fde38b146103395761010b565b8063866163c014610229578063881687d5146102595780638da5cb5b14610289578063940662d9146102a75761010b565b80633477ee2e116100de5780633477ee2e1461019d57806339bfeae3146101d157806347cf6f7614610201578063715018a61461021f5761010b565b80630469a10e1461011057806306a49fce1461014057806319e7998c1461015e57806330a563471461017f575b600080fd5b61012a6004803603810190610125919061133e565b610355565b6040516101379190611429565b60405180910390f35b610148610481565b6040516101559190611628565b60405180910390f35b610166610732565b6040516101769493929190611674565b60405180910390f35b61018761075d565b60405161019491906116b9565b60405180910390f35b6101b760048036038101906101b2919061133e565b61076a565b6040516101c895949392919061171e565b60405180910390f35b6101eb60048036038101906101e691906118c2565b6109d0565b6040516101f8919061190b565b60405180910390f35b610209610a06565b604051610216919061190b565b60405180910390f35b610227610a30565b005b610243600480360381019061023e919061133e565b610a44565b60405161025091906116b9565b60405180910390f35b610273600480360381019061026e919061133e565b610b25565b6040516102809190611926565b60405180910390f35b610291610bd1565b60405161029e9190611989565b60405180910390f35b6102c160048036038101906102bc919061133e565b610bfa565b6040516102ce919061190b565b60405180910390f35b6102df610c1a565b005b6102fb60048036038101906102f69190611a04565b610cc0565b005b610305610f3c565b6040516103129190611b26565b60405180910390f35b610323611076565b60405161033091906116b9565b60405180910390f35b610353600480360381019061034e9190611b74565b6110bf565b005b6060600160020160009054906101000a900460ff1615806103795750600180015442115b6103b8576040517f08c379a00000000000000000000000000000000000000000000000000000000081526004016103af90611bed565b60405180910390fd5b6009600083815260200190815260200160002060009054906101000a900460ff16610418576040517f08c379a000000000000000000000000000000000000000000000000000000000815260040161040f90611c59565b60405180910390fd5b6006600083815260200190815260200160002080548060200260200160405190810160405280929190818152602001828054801561047557602002820191906000526020600020905b815481526020019060010190808311610461575b50505050509050919050565b60606008805480602002602001604051908101604052809291908181526020016000905b8282101561072957838290600052602060002090600502016040518060a0016040529081600082015481526020016001820180546104e290611ca8565b80601f016020809104026020016040519081016040528092919081815260200182805461050e90611ca8565b801561055b5780601f106105305761010080835404028352916020019161055b565b820191906000526020600020905b81548152906001019060200180831161053e57829003601f168201915b5050505050815260200160028201805461057490611ca8565b80601f01602080910402602001604051908101604052809291908181526020018280546105a090611ca8565b80156105ed5780601f106105c2576101008083540402835291602001916105ed565b820191906000526020600020905b8154815290600101906020018083116105d057829003601f168201915b5050505050815260200160038201805461060690611ca8565b80601f016020809104026020016040519081016040528092919081815260200182805461063290611ca8565b801561067f5780601f106106545761010080835404028352916020019161067f565b820191906000526020600020905b81548152906001019060200180831161066257829003601f168201915b5050505050815260200160048201805461069890611ca8565b80601f01602080910402602001604051908101604052809291908181526020018280546106c490611ca8565b80156107115780601f106106e657610100808354040283529160200191610711565b820191906000526020600020905b8154815290600101906020018083116106f457829003601f168201915b505050505081525050815260200190600101906104a5565b50505050905090565b60018060000154908060010154908060020160009054906101000a900460ff16908060030154905084565b6000600880549050905090565b6008818154811061077a57600080fd5b90600052602060002090600502016000915090508060000154908060010180546107a390611ca8565b80601f01602080910402602001604051908101604052809291908181526020018280546107cf90611ca8565b801561081c5780601f106107f15761010080835404028352916020019161081c565b820191906000526020600020905b8154815290600101906020018083116107ff57829003601f168201915b50505050509080600201805461083190611ca8565b80601f016020809104026020016040519081016040528092919081815260200182805461085d90611ca8565b80156108aa5780601f1061087f576101008083540402835291602001916108aa565b820191906000526020600020905b81548152906001019060200180831161088d57829003601f168201915b5050505050908060030180546108bf90611ca8565b80601f01602080910402602001604051908101604052809291908181526020018280546108eb90611ca8565b80156109385780601f1061090d57610100808354040283529160200191610938565b820191906000526020600020905b81548152906001019060200180831161091b57829003601f168201915b50505050509080600401805461094d90611ca8565b80601f016020809104026020016040519081016040528092919081815260200182805461097990611ca8565b80156109c65780601f1061099b576101008083540402835291602001916109c6565b820191906000526020600020905b8154815290600101906020018083116109a957829003601f168201915b5050505050905085565b6005818051602081018201805184825260208301602085012081835280955050505050506000915054906101000a900460ff1681565b6000600160020160009054906101000a900460ff168015610a2b575060018001544211155b905090565b610a38611145565b610a4260006111cc565b565b6000600160020160009054906101000a900460ff161580610a685750600180015442115b610aa7576040517f08c379a0000000000000000000000000000000000000000000000000000000008152600401610a9e90611bed565b60405180910390fd5b6009600083815260200190815260200160002060009054906101000a900460ff16610b07576040517f08c379a0000000000000000000000000000000000000000000000000000000008152600401610afe90611c59565b60405180910390fd5b60066000838152602001908152602001600020805490509050919050565b60078181548110610b3557600080fd5b906000526020600020016000915090508054610b5090611ca8565b80601f0160208091040260200160405190810160405280929190818152602001828054610b7c90611ca8565b8015610bc95780601f10610b9e57610100808354040283529160200191610bc9565b820191906000526020600020905b815481529060010190602001808311610bac57829003601f168201915b505050505081565b60008060009054906101000a900473ffffffffffffffffffffffffffffffffffffffff16905090565b60096020528060005260406000206000915054906101000a900460ff1681565b610c22611145565b600160020160009054906101000a900460ff16610c74576040517f08c379a0000000000000000000000000000000000000000000000000000000008152600401610c6b90611d25565b60405180910390fd5b6000600160020160006101000a81548160ff0219169083151502179055507f7a19ed057db79e3c2fa0b97a54b43bef4fce74b31bb6c01af514b9a18a7f70ab60405160405180910390a1565b600160020160009054906101000a900460ff16610d12576040517f08c379a0000000000000000000000000000000000000000000000000000000008152600401610d0990611d25565b60405180910390fd5b6001800154421115610d59576040517f08c379a0000000000000000000000000000000000000000000000000000000008152600401610d5090611d91565b60405180910390fd5b60058383604051610d6b929190611de1565b908152602001604051809103902060009054906101000a900460ff1615610dc7576040517f08c379a0000000000000000000000000000000000000000000000000000000008152600401610dbe90611e46565b60405180910390fd5b6009600082815260200190815260200160002060009054906101000a900460ff16610e27576040517f08c379a0000000000000000000000000000000000000000000000000000000008152600401610e1e90611c59565b60405180910390fd5b6000610e31611290565b9050600160058585604051610e47929190611de1565b908152602001604051809103902060006101000a81548160ff0219169083151502179055506007848490918060018154018082558091505060019003906000526020600020016000909192909192909192909192509182610ea992919061201d565b506006600083815260200190815260200160002081908060018154018082558091505060019003906000526020600020016000909190919091505560016003016000815480929190610efa9061211c565b91905055507f94b9b209597b37568a0fb4b924237e6e679e8e7bb88cf375dbcf4229c2d5e64281604051610f2e91906116b9565b60405180910390a150505050565b6060600160020160009054906101000a900460ff161580610f605750600180015442115b610f9f576040517f08c379a0000000000000000000000000000000000000000000000000000000008152600401610f9690611bed565b60405180910390fd5b6007805480602002602001604051908101604052809291908181526020016000905b8282101561106d578382906000526020600020018054610fe090611ca8565b80601f016020809104026020016040519081016040528092919081815260200182805461100c90611ca8565b80156110595780601f1061102e57610100808354040283529160200191611059565b820191906000526020600020905b81548152906001019060200180831161103c57829003601f168201915b505050505081526020019060010190610fc1565b50505050905090565b6000600160020160009054906101000a900460ff16158061109b575060018001544210155b156110a957600090506110bc565b4260018001546110b99190612164565b90505b90565b6110c7611145565b600073ffffffffffffffffffffffffffffffffffffffff168173ffffffffffffffffffffffffffffffffffffffff16036111395760006040517f1e4fbdf70000000000000000000000000000000000000000000000000000000081526004016111309190611989565b60405180910390fd5b611142816111cc565b50565b61114d6112ec565b73ffffffffffffffffffffffffffffffffffffffff1661116b610bd1565b73ffffffffffffffffffffffffffffffffffffffff16146111ca5761118e6112ec565b6040517f118cdaa70000000000000000000000000000000000000000000000000000000081526004016111c19190611989565b60405180910390fd5b565b60008060009054906101000a900473ffffffffffffffffffffffffffffffffffffffff169050816000806101000a81548173ffffffffffffffffffffffffffffffffffffffff021916908373ffffffffffffffffffffffffffffffffffffffff1602179055508173ffffffffffffffffffffffffffffffffffffffff168173ffffffffffffffffffffffffffffffffffffffff167f8be0079c531659141344cd1fd0a4f28419497f9722a3daafe3b4186f6b6457e060405160405180910390a35050565b60008061271062015f904244336001600301546040516020016112b69493929190612201565b6040516020818303038152906040528051906020012060001c6112d9919061227e565b6112e391906122af565b90508091505090565b600033905090565b6000604051905090565b600080fd5b600080fd5b6000819050919050565b61131b81611308565b811461132657600080fd5b50565b60008135905061133881611312565b92915050565b600060208284031215611354576113536112fe565b5b600061136284828501611329565b91505092915050565b600081519050919050565b600082825260208201905092915050565b6000819050602082019050919050565b6113a081611308565b82525050565b60006113b28383611397565b60208301905092915050565b6000602082019050919050565b60006113d68261136b565b6113e08185611376565b93506113eb83611387565b8060005b8381101561141c57815161140388826113a6565b975061140e836113be565b9250506001810190506113ef565b5085935050505092915050565b6000602082019050818103600083015261144381846113cb565b905092915050565b600081519050919050565b600082825260208201905092915050565b6000819050602082019050919050565b600081519050919050565b600082825260208201905092915050565b60005b838110156114b1578082015181840152602081019050611496565b60008484015250505050565b6000601f19601f8301169050919050565b60006114d982611477565b6114e38185611482565b93506114f3818560208601611493565b6114fc816114bd565b840191505092915050565b600060a08301600083015161151f6000860182611397565b506020830151848203602086015261153782826114ce565b9150506040830151848203604086015261155182826114ce565b9150506060830151848203606086015261156b82826114ce565b9150506080830151848203608086015261158582826114ce565b9150508091505092915050565b600061159e8383611507565b905092915050565b6000602082019050919050565b60006115be8261144b565b6115c88185611456565b9350836020820285016115da85611467565b8060005b8581101561161657848403895281516115f78582611592565b9450611602836115a6565b925060208a019950506001810190506115de565b50829750879550505050505092915050565b6000602082019050818103600083015261164281846115b3565b905092915050565b61165381611308565b82525050565b60008115159050919050565b61166e81611659565b82525050565b6000608082019050611689600083018761164a565b611696602083018661164a565b6116a36040830185611665565b6116b0606083018461164a565b95945050505050565b60006020820190506116ce600083018461164a565b92915050565b600082825260208201905092915050565b60006116f082611477565b6116fa81856116d4565b935061170a818560208601611493565b611713816114bd565b840191505092915050565b600060a082019050611733600083018861164a565b818103602083015261174581876116e5565b9050818103604083015261175981866116e5565b9050818103606083015261176d81856116e5565b9050818103608083015261178181846116e5565b90509695505050505050565b600080fd5b600080fd5b7f4e487b7100000000000000000000000000000000000000000000000000000000600052604160045260246000fd5b6117cf826114bd565b810181811067ffffffffffffffff821117156117ee576117ed611797565b5b80604052505050565b60006118016112f4565b905061180d82826117c6565b919050565b600067ffffffffffffffff82111561182d5761182c611797565b5b611836826114bd565b9050602081019050919050565b82818337600083830152505050565b600061186561186084611812565b6117f7565b90508281526020810184848401111561188157611880611792565b5b61188c848285611843565b509392505050565b600082601f8301126118a9576118a861178d565b5b81356118b9848260208601611852565b91505092915050565b6000602082840312156118d8576118d76112fe565b5b600082013567ffffffffffffffff8111156118f6576118f5611303565b5b61190284828501611894565b91505092915050565b60006020820190506119206000830184611665565b92915050565b6000602082019050818103600083015261194081846116e5565b905092915050565b600073ffffffffffffffffffffffffffffffffffffffff82169050919050565b600061197382611948565b9050919050565b61198381611968565b82525050565b600060208201905061199e600083018461197a565b92915050565b600080fd5b600080fd5b60008083601f8401126119c4576119c361178d565b5b8235905067ffffffffffffffff8111156119e1576119e06119a4565b5b6020830191508360018202830111156119fd576119fc6119a9565b5b9250929050565b600080600060408486031215611a1d57611a1c6112fe565b5b600084013567ffffffffffffffff811115611a3b57611a3a611303565b5b611a47868287016119ae565b93509350506020611a5a86828701611329565b9150509250925092565b600081519050919050565b600082825260208201905092915050565b6000819050602082019050919050565b6000611a9c83836114ce565b905092915050565b6000602082019050919050565b6000611abc82611a64565b611ac68185611a6f565b935083602082028501611ad885611a80565b8060005b85811015611b145784840389528151611af58582611a90565b9450611b0083611aa4565b925060208a01995050600181019050611adc565b50829750879550505050505092915050565b60006020820190508181036000830152611b408184611ab1565b905092915050565b611b5181611968565b8114611b5c57600080fd5b50565b600081359050611b6e81611b48565b92915050565b600060208284031215611b8a57611b896112fe565b5b6000611b9884828501611b5f565b91505092915050565b7f566f74696e67206973207374696c6c2061637469766500000000000000000000600082015250565b6000611bd76016836116d4565b9150611be282611ba1565b602082019050919050565b60006020820190508181036000830152611c0681611bca565b9050919050565b7f496e76616c69642063616e646964617465204944000000000000000000000000600082015250565b6000611c436014836116d4565b9150611c4e82611c0d565b602082019050919050565b60006020820190508181036000830152611c7281611c36565b9050919050565b7f4e487b7100000000000000000000000000000000000000000000000000000000600052602260045260246000fd5b60006002820490506001821680611cc057607f821691505b602082108103611cd357611cd2611c79565b5b50919050565b7f566f74696e67206973206e6f7420616374697665000000000000000000000000600082015250565b6000611d0f6014836116d4565b9150611d1a82611cd9565b602082019050919050565b60006020820190508181036000830152611d3e81611d02565b9050919050565b7f566f74696e6720706572696f642068617320656e646564000000000000000000600082015250565b6000611d7b6017836116d4565b9150611d8682611d45565b602082019050919050565b60006020820190508181036000830152611daa81611d6e565b9050919050565b600081905092915050565b6000611dc88385611db1565b9350611dd5838584611843565b82840190509392505050565b6000611dee828486611dbc565b91508190509392505050565b7f5468697320656d61696c2068617320616c726561647920766f74656400000000600082015250565b6000611e30601c836116d4565b9150611e3b82611dfa565b602082019050919050565b60006020820190508181036000830152611e5f81611e23565b9050919050565b600082905092915050565b60008190508160005260206000209050919050565b60006020601f8301049050919050565b600082821b905092915050565b600060088302611ed37fffffffffffffffffffffffffffffffffffffffffffffffffffffffffffffffff82611e96565b611edd8683611e96565b95508019841693508086168417925050509392505050565b6000819050919050565b6000611f1a611f15611f1084611308565b611ef5565b611308565b9050919050565b6000819050919050565b611f3483611eff565b611f48611f4082611f21565b848454611ea3565b825550505050565b600090565b611f5d611f50565b611f68818484611f2b565b505050565b5b81811015611f8c57611f81600082611f55565b600181019050611f6e565b5050565b601f821115611fd157611fa281611e71565b611fab84611e86565b81016020851015611fba578190505b611fce611fc685611e86565b830182611f6d565b50505b505050565b600082821c905092915050565b6000611ff460001984600802611fd6565b1980831691505092915050565b600061200d8383611fe3565b9150826002028217905092915050565b6120278383611e66565b67ffffffffffffffff8111156120405761203f611797565b5b61204a8254611ca8565b612055828285611f90565b6000601f8311600181146120845760008415612072578287013590505b61207c8582612001565b8655506120e4565b601f19841661209286611e71565b60005b828110156120ba57848901358255600182019150602085019450602081019050612095565b868310156120d757848901356120d3601f891682611fe3565b8355505b6001600288020188555050505b50505050505050565b7f4e487b7100000000000000000000000000000000000000000000000000000000600052601160045260246000fd5b600061212782611308565b91507fffffffffffffffffffffffffffffffffffffffffffffffffffffffffffffffff8203612159576121586120ed565b5b600182019050919050565b600061216f82611308565b915061217a83611308565b9250828203905081811115612192576121916120ed565b5b92915050565b6000819050919050565b6121b36121ae82611308565b612198565b82525050565b60008160601b9050919050565b60006121d1826121b9565b9050919050565b60006121e3826121c6565b9050919050565b6121fb6121f682611968565b6121d8565b82525050565b600061220d82876121a2565b60208201915061221d82866121a2565b60208201915061222d82856121ea565b60148201915061223d82846121a2565b60208201915081905095945050505050565b7f4e487b7100000000000000000000000000000000000000000000000000000000600052601260045260246000fd5b600061228982611308565b915061229483611308565b9250826122a4576122a361224f565b5b828206905092915050565b60006122ba82611308565b91506122c583611308565b92508282019050808211156122dd576122dc6120ed565b5b9291505056fea26469706673582212206d9c1f17c36193b1f12804a0bbe9dbc1465e062d296f05afc3ec663c80ef178d64736f6c63430008140033","opcodes":"PUSH1 0x80 PUSH1 0x40 MSTORE CALLVALUE DUP1 ISZERO PUSH3 0x11 JUMPI PUSH1 0x0 DUP1 REVERT JUMPDEST POP PUSH1 0x40 MLOAD PUSH3 0x32BC CODESIZE SUB DUP1 PUSH3 0x32BC DUP4 CODECOPY DUP2 DUP2 ADD PUSH1 0x40 MSTORE DUP2 ADD SWAP1 PUSH3 0x37 SWAP2 SWAP1 PUSH3 0x86B JUMP JUMPDEST CALLER PUSH1 0x0 PUSH20 0xFFFFFFFFFFFFFFFFFFFFFFFFFFFFFFFFFFFFFFFF AND DUP2 PUSH20 0xFFFFFFFFFFFFFFFFFFFFFFFFFFFFFFFFFFFFFFFF AND SUB PUSH3 0xAD JUMPI PUSH1 0x0 PUSH1 0x40 MLOAD PUSH32 0x1E4FBDF700000000000000000000000000000000000000000000000000000000 DUP2 MSTORE PUSH1 0x4 ADD PUSH3 0xA4 SWAP2 SWAP1 PUSH3 0x9E7 JUMP JUMPDEST PUSH1 0x40 MLOAD DUP1 SWAP2 SUB SWAP1 REVERT JUMPDEST PUSH3 0xBE DUP2 PUSH3 0x407 PUSH1 0x20 SHL PUSH1 0x20 SHR JUMP JUMPDEST POP DUP4 MLOAD DUP6 MLOAD EQ DUP1 ISZERO PUSH3 0xD2 JUMPI POP DUP3 MLOAD DUP5 MLOAD EQ JUMPDEST DUP1 ISZERO PUSH3 0xE0 JUMPI POP DUP2 MLOAD DUP4 MLOAD EQ JUMPDEST DUP1 ISZERO PUSH3 0xEE JUMPI POP DUP1 MLOAD DUP3 MLOAD EQ JUMPDEST PUSH3 0x130 JUMPI PUSH1 0x40 MLOAD PUSH32 0x8C379A000000000000000000000000000000000000000000000000000000000 DUP2 MSTORE PUSH1 0x4 ADD PUSH3 0x127 SWAP1 PUSH3 0xA65 JUMP JUMPDEST PUSH1 0x40 MLOAD DUP1 SWAP2 SUB SWAP1 REVERT JUMPDEST TIMESTAMP PUSH1 0x1 PUSH1 0x0 ADD DUP2 SWAP1 SSTORE POP PUSH1 0x3C DUP7 PUSH3 0x149 SWAP2 SWAP1 PUSH3 0xAB6 JUMP JUMPDEST TIMESTAMP PUSH3 0x156 SWAP2 SWAP1 PUSH3 0xB01 JUMP JUMPDEST PUSH1 0x1 DUP1 ADD DUP2 SWAP1 SSTORE POP PUSH1 0x1 DUP1 PUSH1 0x2 ADD PUSH1 0x0 PUSH2 0x100 EXP DUP2 SLOAD DUP2 PUSH1 0xFF MUL NOT AND SWAP1 DUP4 ISZERO ISZERO MUL OR SWAP1 SSTORE POP PUSH1 0x0 PUSH1 0x1 PUSH1 0x3 ADD DUP2 SWAP1 SSTORE POP PUSH1 0x0 JUMPDEST DUP6 MLOAD DUP2 LT ISZERO PUSH3 0x3B6 JUMPI PUSH1 0x8 PUSH1 0x40 MLOAD DUP1 PUSH1 0xA0 ADD PUSH1 0x40 MSTORE DUP1 DUP9 DUP5 DUP2 MLOAD DUP2 LT PUSH3 0x1B6 JUMPI PUSH3 0x1B5 PUSH3 0xB3C JUMP JUMPDEST JUMPDEST PUSH1 0x20 MUL PUSH1 0x20 ADD ADD MLOAD DUP2 MSTORE PUSH1 0x20 ADD DUP8 DUP5 DUP2 MLOAD DUP2 LT PUSH3 0x1D9 JUMPI PUSH3 0x1D8 PUSH3 0xB3C JUMP JUMPDEST JUMPDEST PUSH1 0x20 MUL PUSH1 0x20 ADD ADD MLOAD DUP2 MSTORE PUSH1 0x20 ADD DUP7 DUP5 DUP2 MLOAD DUP2 LT PUSH3 0x1FC JUMPI PUSH3 0x1FB PUSH3 0xB3C JUMP JUMPDEST JUMPDEST PUSH1 0x20 MUL PUSH1 0x20 ADD ADD MLOAD DUP2 MSTORE PUSH1 0x20 ADD DUP6 DUP5 DUP2 MLOAD DUP2 LT PUSH3 0x21F JUMPI PUSH3 0x21E PUSH3 0xB3C JUMP JUMPDEST JUMPDEST PUSH1 0x20 MUL PUSH1 0x20 ADD ADD MLOAD DUP2 MSTORE PUSH1 0x20 ADD DUP5 DUP5 DUP2 MLOAD DUP2 LT PUSH3 0x242 JUMPI PUSH3 0x241 PUSH3 0xB3C JUMP JUMPDEST JUMPDEST PUSH1 0x20 MUL PUSH1 0x20 ADD ADD MLOAD DUP2 MSTORE POP SWAP1 DUP1 PUSH1 0x1 DUP2 SLOAD ADD DUP1 DUP3 SSTORE DUP1 SWAP2 POP POP PUSH1 0x1 SWAP1 SUB SWAP1 PUSH1 0x0 MSTORE PUSH1 0x20 PUSH1 0x0 KECCAK256 SWAP1 PUSH1 0x5 MUL ADD PUSH1 0x0 SWAP1 SWAP2 SWAP1 SWAP2 SWAP1 SWAP2 POP PUSH1 0x0 DUP3 ADD MLOAD DUP2 PUSH1 0x0 ADD SSTORE PUSH1 0x20 DUP3 ADD MLOAD DUP2 PUSH1 0x1 ADD SWAP1 DUP2 PUSH3 0x297 SWAP2 SWAP1 PUSH3 0xDAC JUMP JUMPDEST POP PUSH1 0x40 DUP3 ADD MLOAD DUP2 PUSH1 0x2 ADD SWAP1 DUP2 PUSH3 0x2AF SWAP2 SWAP1 PUSH3 0xDAC JUMP JUMPDEST POP PUSH1 0x60 DUP3 ADD MLOAD DUP2 PUSH1 0x3 ADD SWAP1 DUP2 PUSH3 0x2C7 SWAP2 SWAP1 PUSH3 0xDAC JUMP JUMPDEST POP PUSH1 0x80 DUP3 ADD MLOAD DUP2 PUSH1 0x4 ADD SWAP1 DUP2 PUSH3 0x2DF SWAP2 SWAP1 PUSH3 0xDAC JUMP JUMPDEST POP POP POP PUSH1 0x1 PUSH1 0x9 PUSH1 0x0 DUP9 DUP5 DUP2 MLOAD DUP2 LT PUSH3 0x2FE JUMPI PUSH3 0x2FD PUSH3 0xB3C JUMP JUMPDEST JUMPDEST PUSH1 0x20 MUL PUSH1 0x20 ADD ADD MLOAD DUP2 MSTORE PUSH1 0x20 ADD SWAP1 DUP2 MSTORE PUSH1 0x20 ADD PUSH1 0x0 KECCAK256 PUSH1 0x0 PUSH2 0x100 EXP DUP2 SLOAD DUP2 PUSH1 0xFF MUL NOT AND SWAP1 DUP4 ISZERO ISZERO MUL OR SWAP1 SSTORE POP PUSH32 0xE83B2A43E7E82D975C8A0A6D2F045153C869E111136A34D1889AB7B598E396A3 DUP7 DUP3 DUP2 MLOAD DUP2 LT PUSH3 0x362 JUMPI PUSH3 0x361 PUSH3 0xB3C JUMP JUMPDEST JUMPDEST PUSH1 0x20 MUL PUSH1 0x20 ADD ADD MLOAD DUP7 DUP4 DUP2 MLOAD DUP2 LT PUSH3 0x380 JUMPI PUSH3 0x37F PUSH3 0xB3C JUMP JUMPDEST JUMPDEST PUSH1 0x20 MUL PUSH1 0x20 ADD ADD MLOAD PUSH1 0x40 MLOAD PUSH3 0x398 SWAP3 SWAP2 SWAP1 PUSH3 0xEE5 JUMP JUMPDEST PUSH1 0x40 MLOAD DUP1 SWAP2 SUB SWAP1 LOG1 DUP1 DUP1 PUSH3 0x3AD SWAP1 PUSH3 0xF19 JUMP JUMPDEST SWAP2 POP POP PUSH3 0x189 JUMP JUMPDEST POP PUSH32 0xF8C022056754DBACCA05AFF710DC315A2FA7699AE9309FDA403CD1E55C11D40F PUSH1 0x1 PUSH1 0x0 ADD SLOAD PUSH1 0x1 DUP1 ADD SLOAD PUSH1 0x40 MLOAD PUSH3 0x3F3 SWAP3 SWAP2 SWAP1 PUSH3 0xF66 JUMP JUMPDEST PUSH1 0x40 MLOAD DUP1 SWAP2 SUB SWAP1 LOG1 POP POP POP POP POP POP PUSH3 0xF93 JUMP JUMPDEST PUSH1 0x0 DUP1 PUSH1 0x0 SWAP1 SLOAD SWAP1 PUSH2 0x100 EXP SWAP1 DIV PUSH20 0xFFFFFFFFFFFFFFFFFFFFFFFFFFFFFFFFFFFFFFFF AND SWAP1 POP DUP2 PUSH1 0x0 DUP1 PUSH2 0x100 EXP DUP2 SLOAD DUP2 PUSH20 0xFFFFFFFFFFFFFFFFFFFFFFFFFFFFFFFFFFFFFFFF MUL NOT AND SWAP1 DUP4 PUSH20 0xFFFFFFFFFFFFFFFFFFFFFFFFFFFFFFFFFFFFFFFF AND MUL OR SWAP1 SSTORE POP DUP2 PUSH20 0xFFFFFFFFFFFFFFFFFFFFFFFFFFFFFFFFFFFFFFFF AND DUP2 PUSH20 0xFFFFFFFFFFFFFFFFFFFFFFFFFFFFFFFFFFFFFFFF AND PUSH32 0x8BE0079C531659141344CD1FD0A4F28419497F9722A3DAAFE3B4186F6B6457E0 PUSH1 0x40 MLOAD PUSH1 0x40 MLOAD DUP1 SWAP2 SUB SWAP1 LOG3 POP POP JUMP JUMPDEST PUSH1 0x0 PUSH1 0x40 MLOAD SWAP1 POP SWAP1 JUMP JUMPDEST PUSH1 0x0 DUP1 REVERT JUMPDEST PUSH1 0x0 DUP1 REVERT JUMPDEST PUSH1 0x0 DUP2 SWAP1 POP SWAP2 SWAP1 POP JUMP JUMPDEST PUSH3 0x4F4 DUP2 PUSH3 0x4DF JUMP JUMPDEST DUP2 EQ PUSH3 0x500 JUMPI PUSH1 0x0 DUP1 REVERT JUMPDEST POP JUMP JUMPDEST PUSH1 0x0 DUP2 MLOAD SWAP1 POP PUSH3 0x514 DUP2 PUSH3 0x4E9 JUMP JUMPDEST SWAP3 SWAP2 POP POP JUMP JUMPDEST PUSH1 0x0 DUP1 REVERT JUMPDEST PUSH1 0x0 PUSH1 0x1F NOT PUSH1 0x1F DUP4 ADD AND SWAP1 POP SWAP2 SWAP1 POP JUMP JUMPDEST PUSH32 0x4E487B7100000000000000000000000000000000000000000000000000000000 PUSH1 0x0 MSTORE PUSH1 0x41 PUSH1 0x4 MSTORE PUSH1 0x24 PUSH1 0x0 REVERT JUMPDEST PUSH3 0x56A DUP3 PUSH3 0x51F JUMP JUMPDEST DUP2 ADD DUP2 DUP2 LT PUSH8 0xFFFFFFFFFFFFFFFF DUP3 GT OR ISZERO PUSH3 0x58C JUMPI PUSH3 0x58B PUSH3 0x530 JUMP JUMPDEST JUMPDEST DUP1 PUSH1 0x40 MSTORE POP POP POP JUMP JUMPDEST PUSH1 0x0 PUSH3 0x5A1 PUSH3 0x4CB JUMP JUMPDEST SWAP1 POP PUSH3 0x5AF DUP3 DUP3 PUSH3 0x55F JUMP JUMPDEST SWAP2 SWAP1 POP JUMP JUMPDEST PUSH1 0x0 PUSH8 0xFFFFFFFFFFFFFFFF DUP3 GT ISZERO PUSH3 0x5D2 JUMPI PUSH3 0x5D1 PUSH3 0x530 JUMP JUMPDEST JUMPDEST PUSH1 0x20 DUP3 MUL SWAP1 POP PUSH1 0x20 DUP2 ADD SWAP1 POP SWAP2 SWAP1 POP JUMP JUMPDEST PUSH1 0x0 DUP1 REVERT JUMPDEST PUSH1 0x0 PUSH3 0x5FF PUSH3 0x5F9 DUP5 PUSH3 0x5B4 JUMP JUMPDEST PUSH3 0x595 JUMP JUMPDEST SWAP1 POP DUP1 DUP4 DUP3 MSTORE PUSH1 0x20 DUP3 ADD SWAP1 POP PUSH1 0x20 DUP5 MUL DUP4 ADD DUP6 DUP2 GT ISZERO PUSH3 0x625 JUMPI PUSH3 0x624 PUSH3 0x5E3 JUMP JUMPDEST JUMPDEST DUP4 JUMPDEST DUP2 DUP2 LT ISZERO PUSH3 0x652 JUMPI DUP1 PUSH3 0x63D DUP9 DUP3 PUSH3 0x503 JUMP JUMPDEST DUP5 MSTORE PUSH1 0x20 DUP5 ADD SWAP4 POP POP PUSH1 0x20 DUP2 ADD SWAP1 POP PUSH3 0x627 JUMP JUMPDEST POP POP POP SWAP4 SWAP3 POP POP POP JUMP JUMPDEST PUSH1 0x0 DUP3 PUSH1 0x1F DUP4 ADD SLT PUSH3 0x674 JUMPI PUSH3 0x673 PUSH3 0x51A JUMP JUMPDEST JUMPDEST DUP2 MLOAD PUSH3 0x686 DUP5 DUP3 PUSH1 0x20 DUP7 ADD PUSH3 0x5E8 JUMP JUMPDEST SWAP2 POP POP SWAP3 SWAP2 POP POP JUMP JUMPDEST PUSH1 0x0 PUSH8 0xFFFFFFFFFFFFFFFF DUP3 GT ISZERO PUSH3 0x6AD JUMPI PUSH3 0x6AC PUSH3 0x530 JUMP JUMPDEST JUMPDEST PUSH1 0x20 DUP3 MUL SWAP1 POP PUSH1 0x20 DUP2 ADD SWAP1 POP SWAP2 SWAP1 POP JUMP JUMPDEST PUSH1 0x0 DUP1 REVERT JUMPDEST PUSH1 0x0 PUSH8 0xFFFFFFFFFFFFFFFF DUP3 GT ISZERO PUSH3 0x6E1 JUMPI PUSH3 0x6E0 PUSH3 0x530 JUMP JUMPDEST JUMPDEST PUSH3 0x6EC DUP3 PUSH3 0x51F JUMP JUMPDEST SWAP1 POP PUSH1 0x20 DUP2 ADD SWAP1 POP SWAP2 SWAP1 POP JUMP JUMPDEST PUSH1 0x0 JUMPDEST DUP4 DUP2 LT ISZERO PUSH3 0x719 JUMPI DUP1 DUP3 ADD MLOAD DUP2 DUP5 ADD MSTORE PUSH1 0x20 DUP2 ADD SWAP1 POP PUSH3 0x6FC JUMP JUMPDEST PUSH1 0x0 DUP5 DUP5 ADD MSTORE POP POP POP POP JUMP JUMPDEST PUSH1 0x0 PUSH3 0x73C PUSH3 0x736 DUP5 PUSH3 0x6C3 JUMP JUMPDEST PUSH3 0x595 JUMP JUMPDEST SWAP1 POP DUP3 DUP2 MSTORE PUSH1 0x20 DUP2 ADD DUP5 DUP5 DUP5 ADD GT ISZERO PUSH3 0x75B JUMPI PUSH3 0x75A PUSH3 0x6BE JUMP JUMPDEST JUMPDEST PUSH3 0x768 DUP5 DUP3 DUP6 PUSH3 0x6F9 JUMP JUMPDEST POP SWAP4 SWAP3 POP POP POP JUMP JUMPDEST PUSH1 0x0 DUP3 PUSH1 0x1F DUP4 ADD SLT PUSH3 0x788 JUMPI PUSH3 0x787 PUSH3 0x51A JUMP JUMPDEST JUMPDEST DUP2 MLOAD PUSH3 0x79A DUP5 DUP3 PUSH1 0x20 DUP7 ADD PUSH3 0x725 JUMP JUMPDEST SWAP2 POP POP SWAP3 SWAP2 POP POP JUMP JUMPDEST PUSH1 0x0 PUSH3 0x7BA PUSH3 0x7B4 DUP5 PUSH3 0x68F JUMP JUMPDEST PUSH3 0x595 JUMP JUMPDEST SWAP1 POP DUP1 DUP4 DUP3 MSTORE PUSH1 0x20 DUP3 ADD SWAP1 POP PUSH1 0x20 DUP5 MUL DUP4 ADD DUP6 DUP2 GT ISZERO PUSH3 0x7E0 JUMPI PUSH3 0x7DF PUSH3 0x5E3 JUMP JUMPDEST JUMPDEST DUP4 JUMPDEST DUP2 DUP2 LT ISZERO PUSH3 0x82E JUMPI DUP1 MLOAD PUSH8 0xFFFFFFFFFFFFFFFF DUP2 GT ISZERO PUSH3 0x809 JUMPI PUSH3 0x808 PUSH3 0x51A JUMP JUMPDEST JUMPDEST DUP1 DUP7 ADD PUSH3 0x818 DUP10 DUP3 PUSH3 0x770 JUMP JUMPDEST DUP6 MSTORE PUSH1 0x20 DUP6 ADD SWAP5 POP POP POP PUSH1 0x20 DUP2 ADD SWAP1 POP PUSH3 0x7E2 JUMP JUMPDEST POP POP POP SWAP4 SWAP3 POP POP POP JUMP JUMPDEST PUSH1 0x0 DUP3 PUSH1 0x1F DUP4 ADD SLT PUSH3 0x850 JUMPI PUSH3 0x84F PUSH3 0x51A JUMP JUMPDEST JUMPDEST DUP2 MLOAD PUSH3 0x862 DUP5 DUP3 PUSH1 0x20 DUP7 ADD PUSH3 0x7A3 JUMP JUMPDEST SWAP2 POP POP SWAP3 SWAP2 POP POP JUMP JUMPDEST PUSH1 0x0 DUP1 PUSH1 0x0 DUP1 PUSH1 0x0 DUP1 PUSH1 0xC0 DUP8 DUP10 SUB SLT ISZERO PUSH3 0x88B JUMPI PUSH3 0x88A PUSH3 0x4D5 JUMP JUMPDEST JUMPDEST PUSH1 0x0 PUSH3 0x89B DUP10 DUP3 DUP11 ADD PUSH3 0x503 JUMP JUMPDEST SWAP7 POP POP PUSH1 0x20 DUP8 ADD MLOAD PUSH8 0xFFFFFFFFFFFFFFFF DUP2 GT ISZERO PUSH3 0x8BF JUMPI PUSH3 0x8BE PUSH3 0x4DA JUMP JUMPDEST JUMPDEST PUSH3 0x8CD DUP10 DUP3 DUP11 ADD PUSH3 0x65C JUMP JUMPDEST SWAP6 POP POP PUSH1 0x40 DUP8 ADD MLOAD PUSH8 0xFFFFFFFFFFFFFFFF DUP2 GT ISZERO PUSH3 0x8F1 JUMPI PUSH3 0x8F0 PUSH3 0x4DA JUMP JUMPDEST JUMPDEST PUSH3 0x8FF DUP10 DUP3 DUP11 ADD PUSH3 0x838 JUMP JUMPDEST SWAP5 POP POP PUSH1 0x60 DUP8 ADD MLOAD PUSH8 0xFFFFFFFFFFFFFFFF DUP2 GT ISZERO PUSH3 0x923 JUMPI PUSH3 0x922 PUSH3 0x4DA JUMP JUMPDEST JUMPDEST PUSH3 0x931 DUP10 DUP3 DUP11 ADD PUSH3 0x838 JUMP JUMPDEST SWAP4 POP POP PUSH1 0x80 DUP8 ADD MLOAD PUSH8 0xFFFFFFFFFFFFFFFF DUP2 GT ISZERO PUSH3 0x955 JUMPI PUSH3 0x954 PUSH3 0x4DA JUMP JUMPDEST JUMPDEST PUSH3 0x963 DUP10 DUP3 DUP11 ADD PUSH3 0x838 JUMP JUMPDEST SWAP3 POP POP PUSH1 0xA0 DUP8 ADD MLOAD PUSH8 0xFFFFFFFFFFFFFFFF DUP2 GT ISZERO PUSH3 0x987 JUMPI PUSH3 0x986 PUSH3 0x4DA JUMP JUMPDEST JUMPDEST PUSH3 0x995 DUP10 DUP3 DUP11 ADD PUSH3 0x838 JUMP JUMPDEST SWAP2 POP POP SWAP3 SWAP6 POP SWAP3 SWAP6 POP SWAP3 SWAP6 JUMP JUMPDEST PUSH1 0x0 PUSH20 0xFFFFFFFFFFFFFFFFFFFFFFFFFFFFFFFFFFFFFFFF DUP3 AND SWAP1 POP SWAP2 SWAP1 POP JUMP JUMPDEST PUSH1 0x0 PUSH3 0x9CF DUP3 PUSH3 0x9A2 JUMP JUMPDEST SWAP1 POP SWAP2 SWAP1 POP JUMP JUMPDEST PUSH3 0x9E1 DUP2 PUSH3 0x9C2 JUMP JUMPDEST DUP3 MSTORE POP POP JUMP JUMPDEST PUSH1 0x0 PUSH1 0x20 DUP3 ADD SWAP1 POP PUSH3 0x9FE PUSH1 0x0 DUP4 ADD DUP5 PUSH3 0x9D6 JUMP JUMPDEST SWAP3 SWAP2 POP POP JUMP JUMPDEST PUSH1 0x0 DUP3 DUP3 MSTORE PUSH1 0x20 DUP3 ADD SWAP1 POP SWAP3 SWAP2 POP POP JUMP JUMPDEST PUSH32 0x417272617973206C656E677468206D69736D6174636800000000000000000000 PUSH1 0x0 DUP3 ADD MSTORE POP JUMP JUMPDEST PUSH1 0x0 PUSH3 0xA4D PUSH1 0x16 DUP4 PUSH3 0xA04 JUMP JUMPDEST SWAP2 POP PUSH3 0xA5A DUP3 PUSH3 0xA15 JUMP JUMPDEST PUSH1 0x20 DUP3 ADD SWAP1 POP SWAP2 SWAP1 POP JUMP JUMPDEST PUSH1 0x0 PUSH1 0x20 DUP3 ADD SWAP1 POP DUP2 DUP2 SUB PUSH1 0x0 DUP4 ADD MSTORE PUSH3 0xA80 DUP2 PUSH3 0xA3E JUMP JUMPDEST SWAP1 POP SWAP2 SWAP1 POP JUMP JUMPDEST PUSH32 0x4E487B7100000000000000000000000000000000000000000000000000000000 PUSH1 0x0 MSTORE PUSH1 0x11 PUSH1 0x4 MSTORE PUSH1 0x24 PUSH1 0x0 REVERT JUMPDEST PUSH1 0x0 PUSH3 0xAC3 DUP3 PUSH3 0x4DF JUMP JUMPDEST SWAP2 POP PUSH3 0xAD0 DUP4 PUSH3 0x4DF JUMP JUMPDEST SWAP3 POP DUP3 DUP3 MUL PUSH3 0xAE0 DUP2 PUSH3 0x4DF JUMP JUMPDEST SWAP2 POP DUP3 DUP3 DIV DUP5 EQ DUP4 ISZERO OR PUSH3 0xAFA JUMPI PUSH3 0xAF9 PUSH3 0xA87 JUMP JUMPDEST JUMPDEST POP SWAP3 SWAP2 POP POP JUMP JUMPDEST PUSH1 0x0 PUSH3 0xB0E DUP3 PUSH3 0x4DF JUMP JUMPDEST SWAP2 POP PUSH3 0xB1B DUP4 PUSH3 0x4DF JUMP JUMPDEST SWAP3 POP DUP3 DUP3 ADD SWAP1 POP DUP1 DUP3 GT ISZERO PUSH3 0xB36 JUMPI PUSH3 0xB35 PUSH3 0xA87 JUMP JUMPDEST JUMPDEST SWAP3 SWAP2 POP POP JUMP JUMPDEST PUSH32 0x4E487B7100000000000000000000000000000000000000000000000000000000 PUSH1 0x0 MSTORE PUSH1 0x32 PUSH1 0x4 MSTORE PUSH1 0x24 PUSH1 0x0 REVERT JUMPDEST PUSH1 0x0 DUP2 MLOAD SWAP1 POP SWAP2 SWAP1 POP JUMP JUMPDEST PUSH32 0x4E487B7100000000000000000000000000000000000000000000000000000000 PUSH1 0x0 MSTORE PUSH1 0x22 PUSH1 0x4 MSTORE PUSH1 0x24 PUSH1 0x0 REVERT JUMPDEST PUSH1 0x0 PUSH1 0x2 DUP3 DIV SWAP1 POP PUSH1 0x1 DUP3 AND DUP1 PUSH3 0xBBE JUMPI PUSH1 0x7F DUP3 AND SWAP2 POP JUMPDEST PUSH1 0x20 DUP3 LT DUP2 SUB PUSH3 0xBD4 JUMPI PUSH3 0xBD3 PUSH3 0xB76 JUMP JUMPDEST JUMPDEST POP SWAP2 SWAP1 POP JUMP JUMPDEST PUSH1 0x0 DUP2 SWAP1 POP DUP2 PUSH1 0x0 MSTORE PUSH1 0x20 PUSH1 0x0 KECCAK256 SWAP1 POP SWAP2 SWAP1 POP JUMP JUMPDEST PUSH1 0x0 PUSH1 0x20 PUSH1 0x1F DUP4 ADD DIV SWAP1 POP SWAP2 SWAP1 POP JUMP JUMPDEST PUSH1 0x0 DUP3 DUP3 SHL SWAP1 POP SWAP3 SWAP2 POP POP JUMP JUMPDEST PUSH1 0x0 PUSH1 0x8 DUP4 MUL PUSH3 0xC3E PUSH32 0xFFFFFFFFFFFFFFFFFFFFFFFFFFFFFFFFFFFFFFFFFFFFFFFFFFFFFFFFFFFFFFFF DUP3 PUSH3 0xBFF JUMP JUMPDEST PUSH3 0xC4A DUP7 DUP4 PUSH3 0xBFF JUMP JUMPDEST SWAP6 POP DUP1 NOT DUP5 AND SWAP4 POP DUP1 DUP7 AND DUP5 OR SWAP3 POP POP POP SWAP4 SWAP3 POP POP POP JUMP JUMPDEST PUSH1 0x0 DUP2 SWAP1 POP SWAP2 SWAP1 POP JUMP JUMPDEST PUSH1 0x0 PUSH3 0xC8D PUSH3 0xC87 PUSH3 0xC81 DUP5 PUSH3 0x4DF JUMP JUMPDEST PUSH3 0xC62 JUMP JUMPDEST PUSH3 0x4DF JUMP JUMPDEST SWAP1 POP SWAP2 SWAP1 POP JUMP JUMPDEST PUSH1 0x0 DUP2 SWAP1 POP SWAP2 SWAP1 POP JUMP JUMPDEST PUSH3 0xCA9 DUP4 PUSH3 0xC6C JUMP JUMPDEST PUSH3 0xCC1 PUSH3 0xCB8 DUP3 PUSH3 0xC94 JUMP JUMPDEST DUP5 DUP5 SLOAD PUSH3 0xC0C JUMP JUMPDEST DUP3 SSTORE POP POP POP POP JUMP JUMPDEST PUSH1 0x0 SWAP1 JUMP JUMPDEST PUSH3 0xCD8 PUSH3 0xCC9 JUMP JUMPDEST PUSH3 0xCE5 DUP2 DUP5 DUP5 PUSH3 0xC9E JUMP JUMPDEST POP POP POP JUMP JUMPDEST JUMPDEST DUP2 DUP2 LT ISZERO PUSH3 0xD0D JUMPI PUSH3 0xD01 PUSH1 0x0 DUP3 PUSH3 0xCCE JUMP JUMPDEST PUSH1 0x1 DUP2 ADD SWAP1 POP PUSH3 0xCEB JUMP JUMPDEST POP POP JUMP JUMPDEST PUSH1 0x1F DUP3 GT ISZERO PUSH3 0xD5C JUMPI PUSH3 0xD26 DUP2 PUSH3 0xBDA JUMP JUMPDEST PUSH3 0xD31 DUP5 PUSH3 0xBEF JUMP JUMPDEST DUP2 ADD PUSH1 0x20 DUP6 LT ISZERO PUSH3 0xD41 JUMPI DUP2 SWAP1 POP JUMPDEST PUSH3 0xD59 PUSH3 0xD50 DUP6 PUSH3 0xBEF JUMP JUMPDEST DUP4 ADD DUP3 PUSH3 0xCEA JUMP JUMPDEST POP POP JUMPDEST POP POP POP JUMP JUMPDEST PUSH1 0x0 DUP3 DUP3 SHR SWAP1 POP SWAP3 SWAP2 POP POP JUMP JUMPDEST PUSH1 0x0 PUSH3 0xD81 PUSH1 0x0 NOT DUP5 PUSH1 0x8 MUL PUSH3 0xD61 JUMP JUMPDEST NOT DUP1 DUP4 AND SWAP2 POP POP SWAP3 SWAP2 POP POP JUMP JUMPDEST PUSH1 0x0 PUSH3 0xD9C DUP4 DUP4 PUSH3 0xD6E JUMP JUMPDEST SWAP2 POP DUP3 PUSH1 0x2 MUL DUP3 OR SWAP1 POP SWAP3 SWAP2 POP POP JUMP JUMPDEST PUSH3 0xDB7 DUP3 PUSH3 0xB6B JUMP JUMPDEST PUSH8 0xFFFFFFFFFFFFFFFF DUP2 GT ISZERO PUSH3 0xDD3 JUMPI PUSH3 0xDD2 PUSH3 0x530 JUMP JUMPDEST JUMPDEST PUSH3 0xDDF DUP3 SLOAD PUSH3 0xBA5 JUMP JUMPDEST PUSH3 0xDEC DUP3 DUP3 DUP6 PUSH3 0xD11 JUMP JUMPDEST PUSH1 0x0 PUSH1 0x20 SWAP1 POP PUSH1 0x1F DUP4 GT PUSH1 0x1 DUP2 EQ PUSH3 0xE24 JUMPI PUSH1 0x0 DUP5 ISZERO PUSH3 0xE0F JUMPI DUP3 DUP8 ADD MLOAD SWAP1 POP JUMPDEST PUSH3 0xE1B DUP6 DUP3 PUSH3 0xD8E JUMP JUMPDEST DUP7 SSTORE POP PUSH3 0xE8B JUMP JUMPDEST PUSH1 0x1F NOT DUP5 AND PUSH3 0xE34 DUP7 PUSH3 0xBDA JUMP JUMPDEST PUSH1 0x0 JUMPDEST DUP3 DUP2 LT ISZERO PUSH3 0xE5E JUMPI DUP5 DUP10 ADD MLOAD DUP3 SSTORE PUSH1 0x1 DUP3 ADD SWAP2 POP PUSH1 0x20 DUP6 ADD SWAP5 POP PUSH1 0x20 DUP2 ADD SWAP1 POP PUSH3 0xE37 JUMP JUMPDEST DUP7 DUP4 LT ISZERO PUSH3 0xE7E JUMPI DUP5 DUP10 ADD MLOAD PUSH3 0xE7A PUSH1 0x1F DUP10 AND DUP3 PUSH3 0xD6E JUMP JUMPDEST DUP4 SSTORE POP JUMPDEST PUSH1 0x1 PUSH1 0x2 DUP9 MUL ADD DUP9 SSTORE POP POP POP JUMPDEST POP POP POP POP POP POP JUMP JUMPDEST PUSH3 0xE9E DUP2 PUSH3 0x4DF JUMP JUMPDEST DUP3 MSTORE POP POP JUMP JUMPDEST PUSH1 0x0 PUSH3 0xEB1 DUP3 PUSH3 0xB6B JUMP JUMPDEST PUSH3 0xEBD DUP2 DUP6 PUSH3 0xA04 JUMP JUMPDEST SWAP4 POP PUSH3 0xECF DUP2 DUP6 PUSH1 0x20 DUP7 ADD PUSH3 0x6F9 JUMP JUMPDEST PUSH3 0xEDA DUP2 PUSH3 0x51F JUMP JUMPDEST DUP5 ADD SWAP2 POP POP SWAP3 SWAP2 POP POP JUMP JUMPDEST PUSH1 0x0 PUSH1 0x40 DUP3 ADD SWAP1 POP PUSH3 0xEFC PUSH1 0x0 DUP4 ADD DUP6 PUSH3 0xE93 JUMP JUMPDEST DUP2 DUP2 SUB PUSH1 0x20 DUP4 ADD MSTORE PUSH3 0xF10 DUP2 DUP5 PUSH3 0xEA4 JUMP JUMPDEST SWAP1 POP SWAP4 SWAP3 POP POP POP JUMP JUMPDEST PUSH1 0x0 PUSH3 0xF26 DUP3 PUSH3 0x4DF JUMP JUMPDEST SWAP2 POP PUSH32 0xFFFFFFFFFFFFFFFFFFFFFFFFFFFFFFFFFFFFFFFFFFFFFFFFFFFFFFFFFFFFFFFF DUP3 SUB PUSH3 0xF5B JUMPI PUSH3 0xF5A PUSH3 0xA87 JUMP JUMPDEST JUMPDEST PUSH1 0x1 DUP3 ADD SWAP1 POP SWAP2 SWAP1 POP JUMP JUMPDEST PUSH1 0x0 PUSH1 0x40 DUP3 ADD SWAP1 POP PUSH3 0xF7D PUSH1 0x0 DUP4 ADD DUP6 PUSH3 0xE93 JUMP JUMPDEST PUSH3 0xF8C PUSH1 0x20 DUP4 ADD DUP5 PUSH3 0xE93 JUMP JUMPDEST SWAP4 SWAP3 POP POP POP JUMP JUMPDEST PUSH2 0x2319 DUP1 PUSH3 0xFA3 PUSH1 0x0 CODECOPY PUSH1 0x0 RETURN INVALID PUSH1 0x80 PUSH1 0x40 MSTORE CALLVALUE DUP1 ISZERO PUSH2 0x10 JUMPI PUSH1 0x0 DUP1 REVERT JUMPDEST POP PUSH1 0x4 CALLDATASIZE LT PUSH2 0x10B JUMPI PUSH1 0x0 CALLDATALOAD PUSH1 0xE0 SHR DUP1 PUSH4 0x866163C0 GT PUSH2 0xA2 JUMPI DUP1 PUSH4 0xC3403DDF GT PUSH2 0x71 JUMPI DUP1 PUSH4 0xC3403DDF EQ PUSH2 0x2D7 JUMPI DUP1 PUSH4 0xE3B9E2FA EQ PUSH2 0x2E1 JUMPI DUP1 PUSH4 0xEED62371 EQ PUSH2 0x2FD JUMPI DUP1 PUSH4 0xEFB98BCF EQ PUSH2 0x31B JUMPI DUP1 PUSH4 0xF2FDE38B EQ PUSH2 0x339 JUMPI PUSH2 0x10B JUMP JUMPDEST DUP1 PUSH4 0x866163C0 EQ PUSH2 0x229 JUMPI DUP1 PUSH4 0x881687D5 EQ PUSH2 0x259 JUMPI DUP1 PUSH4 0x8DA5CB5B EQ PUSH2 0x289 JUMPI DUP1 PUSH4 0x940662D9 EQ PUSH2 0x2A7 JUMPI PUSH2 0x10B JUMP JUMPDEST DUP1 PUSH4 0x3477EE2E GT PUSH2 0xDE JUMPI DUP1 PUSH4 0x3477EE2E EQ PUSH2 0x19D JUMPI DUP1 PUSH4 0x39BFEAE3 EQ PUSH2 0x1D1 JUMPI DUP1 PUSH4 0x47CF6F76 EQ PUSH2 0x201 JUMPI DUP1 PUSH4 0x715018A6 EQ PUSH2 0x21F JUMPI PUSH2 0x10B JUMP JUMPDEST DUP1 PUSH4 0x469A10E EQ PUSH2 0x110 JUMPI DUP1 PUSH4 0x6A49FCE EQ PUSH2 0x140 JUMPI DUP1 PUSH4 0x19E7998C EQ PUSH2 0x15E JUMPI DUP1 PUSH4 0x30A56347 EQ PUSH2 0x17F JUMPI JUMPDEST PUSH1 0x0 DUP1 REVERT JUMPDEST PUSH2 0x12A PUSH1 0x4 DUP1 CALLDATASIZE SUB DUP2 ADD SWAP1 PUSH2 0x125 SWAP2 SWAP1 PUSH2 0x133E JUMP JUMPDEST PUSH2 0x355 JUMP JUMPDEST PUSH1 0x40 MLOAD PUSH2 0x137 SWAP2 SWAP1 PUSH2 0x1429 JUMP JUMPDEST PUSH1 0x40 MLOAD DUP1 SWAP2 SUB SWAP1 RETURN JUMPDEST PUSH2 0x148 PUSH2 0x481 JUMP JUMPDEST PUSH1 0x40 MLOAD PUSH2 0x155 SWAP2 SWAP1 PUSH2 0x1628 JUMP JUMPDEST PUSH1 0x40 MLOAD DUP1 SWAP2 SUB SWAP1 RETURN JUMPDEST PUSH2 0x166 PUSH2 0x732 JUMP JUMPDEST PUSH1 0x40 MLOAD PUSH2 0x176 SWAP5 SWAP4 SWAP3 SWAP2 SWAP1 PUSH2 0x1674 JUMP JUMPDEST PUSH1 0x40 MLOAD DUP1 SWAP2 SUB SWAP1 RETURN JUMPDEST PUSH2 0x187 PUSH2 0x75D JUMP JUMPDEST PUSH1 0x40 MLOAD PUSH2 0x194 SWAP2 SWAP1 PUSH2 0x16B9 JUMP JUMPDEST PUSH1 0x40 MLOAD DUP1 SWAP2 SUB SWAP1 RETURN JUMPDEST PUSH2 0x1B7 PUSH1 0x4 DUP1 CALLDATASIZE SUB DUP2 ADD SWAP1 PUSH2 0x1B2 SWAP2 SWAP1 PUSH2 0x133E JUMP JUMPDEST PUSH2 0x76A JUMP JUMPDEST PUSH1 0x40 MLOAD PUSH2 0x1C8 SWAP6 SWAP5 SWAP4 SWAP3 SWAP2 SWAP1 PUSH2 0x171E JUMP JUMPDEST PUSH1 0x40 MLOAD DUP1 SWAP2 SUB SWAP1 RETURN JUMPDEST PUSH2 0x1EB PUSH1 0x4 DUP1 CALLDATASIZE SUB DUP2 ADD SWAP1 PUSH2 0x1E6 SWAP2 SWAP1 PUSH2 0x18C2 JUMP JUMPDEST PUSH2 0x9D0 JUMP JUMPDEST PUSH1 0x40 MLOAD PUSH2 0x1F8 SWAP2 SWAP1 PUSH2 0x190B JUMP JUMPDEST PUSH1 0x40 MLOAD DUP1 SWAP2 SUB SWAP1 RETURN JUMPDEST PUSH2 0x209 PUSH2 0xA06 JUMP JUMPDEST PUSH1 0x40 MLOAD PUSH2 0x216 SWAP2 SWAP1 PUSH2 0x190B JUMP JUMPDEST PUSH1 0x40 MLOAD DUP1 SWAP2 SUB SWAP1 RETURN JUMPDEST PUSH2 0x227 PUSH2 0xA30 JUMP JUMPDEST STOP JUMPDEST PUSH2 0x243 PUSH1 0x4 DUP1 CALLDATASIZE SUB DUP2 ADD SWAP1 PUSH2 0x23E SWAP2 SWAP1 PUSH2 0x133E JUMP JUMPDEST PUSH2 0xA44 JUMP JUMPDEST PUSH1 0x40 MLOAD PUSH2 0x250 SWAP2 SWAP1 PUSH2 0x16B9 JUMP JUMPDEST PUSH1 0x40 MLOAD DUP1 SWAP2 SUB SWAP1 RETURN JUMPDEST PUSH2 0x273 PUSH1 0x4 DUP1 CALLDATASIZE SUB DUP2 ADD SWAP1 PUSH2 0x26E SWAP2 SWAP1 PUSH2 0x133E JUMP JUMPDEST PUSH2 0xB25 JUMP JUMPDEST PUSH1 0x40 MLOAD PUSH2 0x280 SWAP2 SWAP1 PUSH2 0x1926 JUMP JUMPDEST PUSH1 0x40 MLOAD DUP1 SWAP2 SUB SWAP1 RETURN JUMPDEST PUSH2 0x291 PUSH2 0xBD1 JUMP JUMPDEST PUSH1 0x40 MLOAD PUSH2 0x29E SWAP2 SWAP1 PUSH2 0x1989 JUMP JUMPDEST PUSH1 0x40 MLOAD DUP1 SWAP2 SUB SWAP1 RETURN JUMPDEST PUSH2 0x2C1 PUSH1 0x4 DUP1 CALLDATASIZE SUB DUP2 ADD SWAP1 PUSH2 0x2BC SWAP2 SWAP1 PUSH2 0x133E JUMP JUMPDEST PUSH2 0xBFA JUMP JUMPDEST PUSH1 0x40 MLOAD PUSH2 0x2CE SWAP2 SWAP1 PUSH2 0x190B JUMP JUMPDEST PUSH1 0x40 MLOAD DUP1 SWAP2 SUB SWAP1 RETURN JUMPDEST PUSH2 0x2DF PUSH2 0xC1A JUMP JUMPDEST STOP JUMPDEST PUSH2 0x2FB PUSH1 0x4 DUP1 CALLDATASIZE SUB DUP2 ADD SWAP1 PUSH2 0x2F6 SWAP2 SWAP1 PUSH2 0x1A04 JUMP JUMPDEST PUSH2 0xCC0 JUMP JUMPDEST STOP JUMPDEST PUSH2 0x305 PUSH2 0xF3C JUMP JUMPDEST PUSH1 0x40 MLOAD PUSH2 0x312 SWAP2 SWAP1 PUSH2 0x1B26 JUMP JUMPDEST PUSH1 0x40 MLOAD DUP1 SWAP2 SUB SWAP1 RETURN JUMPDEST PUSH2 0x323 PUSH2 0x1076 JUMP JUMPDEST PUSH1 0x40 MLOAD PUSH2 0x330 SWAP2 SWAP1 PUSH2 0x16B9 JUMP JUMPDEST PUSH1 0x40 MLOAD DUP1 SWAP2 SUB SWAP1 RETURN JUMPDEST PUSH2 0x353 PUSH1 0x4 DUP1 CALLDATASIZE SUB DUP2 ADD SWAP1 PUSH2 0x34E SWAP2 SWAP1 PUSH2 0x1B74 JUMP JUMPDEST PUSH2 0x10BF JUMP JUMPDEST STOP JUMPDEST PUSH1 0x60 PUSH1 0x1 PUSH1 0x2 ADD PUSH1 0x0 SWAP1 SLOAD SWAP1 PUSH2 0x100 EXP SWAP1 DIV PUSH1 0xFF AND ISZERO DUP1 PUSH2 0x379 JUMPI POP PUSH1 0x1 DUP1 ADD SLOAD TIMESTAMP GT JUMPDEST PUSH2 0x3B8 JUMPI PUSH1 0x40 MLOAD PUSH32 0x8C379A000000000000000000000000000000000000000000000000000000000 DUP2 MSTORE PUSH1 0x4 ADD PUSH2 0x3AF SWAP1 PUSH2 0x1BED JUMP JUMPDEST PUSH1 0x40 MLOAD DUP1 SWAP2 SUB SWAP1 REVERT JUMPDEST PUSH1 0x9 PUSH1 0x0 DUP4 DUP2 MSTORE PUSH1 0x20 ADD SWAP1 DUP2 MSTORE PUSH1 0x20 ADD PUSH1 0x0 KECCAK256 PUSH1 0x0 SWAP1 SLOAD SWAP1 PUSH2 0x100 EXP SWAP1 DIV PUSH1 0xFF AND PUSH2 0x418 JUMPI PUSH1 0x40 MLOAD PUSH32 0x8C379A000000000000000000000000000000000000000000000000000000000 DUP2 MSTORE PUSH1 0x4 ADD PUSH2 0x40F SWAP1 PUSH2 0x1C59 JUMP JUMPDEST PUSH1 0x40 MLOAD DUP1 SWAP2 SUB SWAP1 REVERT JUMPDEST PUSH1 0x6 PUSH1 0x0 DUP4 DUP2 MSTORE PUSH1 0x20 ADD SWAP1 DUP2 MSTORE PUSH1 0x20 ADD PUSH1 0x0 KECCAK256 DUP1 SLOAD DUP1 PUSH1 0x20 MUL PUSH1 0x20 ADD PUSH1 0x40 MLOAD SWAP1 DUP2 ADD PUSH1 0x40 MSTORE DUP1 SWAP3 SWAP2 SWAP1 DUP2 DUP2 MSTORE PUSH1 0x20 ADD DUP3 DUP1 SLOAD DUP1 ISZERO PUSH2 0x475 JUMPI PUSH1 0x20 MUL DUP3 ADD SWAP2 SWAP1 PUSH1 0x0 MSTORE PUSH1 0x20 PUSH1 0x0 KECCAK256 SWAP1 JUMPDEST DUP2 SLOAD DUP2 MSTORE PUSH1 0x20 ADD SWAP1 PUSH1 0x1 ADD SWAP1 DUP1 DUP4 GT PUSH2 0x461 JUMPI JUMPDEST POP POP POP POP POP SWAP1 POP SWAP2 SWAP1 POP JUMP JUMPDEST PUSH1 0x60 PUSH1 0x8 DUP1 SLOAD DUP1 PUSH1 0x20 MUL PUSH1 0x20 ADD PUSH1 0x40 MLOAD SWAP1 DUP2 ADD PUSH1 0x40 MSTORE DUP1 SWAP3 SWAP2 SWAP1 DUP2 DUP2 MSTORE PUSH1 0x20 ADD PUSH1 0x0 SWAP1 JUMPDEST DUP3 DUP3 LT ISZERO PUSH2 0x729 JUMPI DUP4 DUP3 SWAP1 PUSH1 0x0 MSTORE PUSH1 0x20 PUSH1 0x0 KECCAK256 SWAP1 PUSH1 0x5 MUL ADD PUSH1 0x40 MLOAD DUP1 PUSH1 0xA0 ADD PUSH1 0x40 MSTORE SWAP1 DUP2 PUSH1 0x0 DUP3 ADD SLOAD DUP2 MSTORE PUSH1 0x20 ADD PUSH1 0x1 DUP3 ADD DUP1 SLOAD PUSH2 0x4E2 SWAP1 PUSH2 0x1CA8 JUMP JUMPDEST DUP1 PUSH1 0x1F ADD PUSH1 0x20 DUP1 SWAP2 DIV MUL PUSH1 0x20 ADD PUSH1 0x40 MLOAD SWAP1 DUP2 ADD PUSH1 0x40 MSTORE DUP1 SWAP3 SWAP2 SWAP1 DUP2 DUP2 MSTORE PUSH1 0x20 ADD DUP3 DUP1 SLOAD PUSH2 0x50E SWAP1 PUSH2 0x1CA8 JUMP JUMPDEST DUP1 ISZERO PUSH2 0x55B JUMPI DUP1 PUSH1 0x1F LT PUSH2 0x530 JUMPI PUSH2 0x100 DUP1 DUP4 SLOAD DIV MUL DUP4 MSTORE SWAP2 PUSH1 0x20 ADD SWAP2 PUSH2 0x55B JUMP JUMPDEST DUP3 ADD SWAP2 SWAP1 PUSH1 0x0 MSTORE PUSH1 0x20 PUSH1 0x0 KECCAK256 SWAP1 JUMPDEST DUP2 SLOAD DUP2 MSTORE SWAP1 PUSH1 0x1 ADD SWAP1 PUSH1 0x20 ADD DUP1 DUP4 GT PUSH2 0x53E JUMPI DUP3 SWAP1 SUB PUSH1 0x1F AND DUP3 ADD SWAP2 JUMPDEST POP POP POP POP POP DUP2 MSTORE PUSH1 0x20 ADD PUSH1 0x2 DUP3 ADD DUP1 SLOAD PUSH2 0x574 SWAP1 PUSH2 0x1CA8 JUMP JUMPDEST DUP1 PUSH1 0x1F ADD PUSH1 0x20 DUP1 SWAP2 DIV MUL PUSH1 0x20 ADD PUSH1 0x40 MLOAD SWAP1 DUP2 ADD PUSH1 0x40 MSTORE DUP1 SWAP3 SWAP2 SWAP1 DUP2 DUP2 MSTORE PUSH1 0x20 ADD DUP3 DUP1 SLOAD PUSH2 0x5A0 SWAP1 PUSH2 0x1CA8 JUMP JUMPDEST DUP1 ISZERO PUSH2 0x5ED JUMPI DUP1 PUSH1 0x1F LT PUSH2 0x5C2 JUMPI PUSH2 0x100 DUP1 DUP4 SLOAD DIV MUL DUP4 MSTORE SWAP2 PUSH1 0x20 ADD SWAP2 PUSH2 0x5ED JUMP JUMPDEST DUP3 ADD SWAP2 SWAP1 PUSH1 0x0 MSTORE PUSH1 0x20 PUSH1 0x0 KECCAK256 SWAP1 JUMPDEST DUP2 SLOAD DUP2 MSTORE SWAP1 PUSH1 0x1 ADD SWAP1 PUSH1 0x20 ADD DUP1 DUP4 GT PUSH2 0x5D0 JUMPI DUP3 SWAP1 SUB PUSH1 0x1F AND DUP3 ADD SWAP2 JUMPDEST POP POP POP POP POP DUP2 MSTORE PUSH1 0x20 ADD PUSH1 0x3 DUP3 ADD DUP1 SLOAD PUSH2 0x606 SWAP1 PUSH2 0x1CA8 JUMP JUMPDEST DUP1 PUSH1 0x1F ADD PUSH1 0x20 DUP1 SWAP2 DIV MUL PUSH1 0x20 ADD PUSH1 0x40 MLOAD SWAP1 DUP2 ADD PUSH1 0x40 MSTORE DUP1 SWAP3 SWAP2 SWAP1 DUP2 DUP2 MSTORE PUSH1 0x20 ADD DUP3 DUP1 SLOAD PUSH2 0x632 SWAP1 PUSH2 0x1CA8 JUMP JUMPDEST DUP1 ISZERO PUSH2 0x67F JUMPI DUP1 PUSH1 0x1F LT PUSH2 0x654 JUMPI PUSH2 0x100 DUP1 DUP4 SLOAD DIV MUL DUP4 MSTORE SWAP2 PUSH1 0x20 ADD SWAP2 PUSH2 0x67F JUMP JUMPDEST DUP3 ADD SWAP2 SWAP1 PUSH1 0x0 MSTORE PUSH1 0x20 PUSH1 0x0 KECCAK256 SWAP1 JUMPDEST DUP2 SLOAD DUP2 MSTORE SWAP1 PUSH1 0x1 ADD SWAP1 PUSH1 0x20 ADD DUP1 DUP4 GT PUSH2 0x662 JUMPI DUP3 SWAP1 SUB PUSH1 0x1F AND DUP3 ADD SWAP2 JUMPDEST POP POP POP POP POP DUP2 MSTORE PUSH1 0x20 ADD PUSH1 0x4 DUP3 ADD DUP1 SLOAD PUSH2 0x698 SWAP1 PUSH2 0x1CA8 JUMP JUMPDEST DUP1 PUSH1 0x1F ADD PUSH1 0x20 DUP1 SWAP2 DIV MUL PUSH1 0x20 ADD PUSH1 0x40 MLOAD SWAP1 DUP2 ADD PUSH1 0x40 MSTORE DUP1 SWAP3 SWAP2 SWAP1 DUP2 DUP2 MSTORE PUSH1 0x20 ADD DUP3 DUP1 SLOAD PUSH2 0x6C4 SWAP1 PUSH2 0x1CA8 JUMP JUMPDEST DUP1 ISZERO PUSH2 0x711 JUMPI DUP1 PUSH1 0x1F LT PUSH2 0x6E6 JUMPI PUSH2 0x100 DUP1 DUP4 SLOAD DIV MUL DUP4 MSTORE SWAP2 PUSH1 0x20 ADD SWAP2 PUSH2 0x711 JUMP JUMPDEST DUP3 ADD SWAP2 SWAP1 PUSH1 0x0 MSTORE PUSH1 0x20 PUSH1 0x0 KECCAK256 SWAP1 JUMPDEST DUP2 SLOAD DUP2 MSTORE SWAP1 PUSH1 0x1 ADD SWAP1 PUSH1 0x20 ADD DUP1 DUP4 GT PUSH2 0x6F4 JUMPI DUP3 SWAP1 SUB PUSH1 0x1F AND DUP3 ADD SWAP2 JUMPDEST POP POP POP POP POP DUP2 MSTORE POP POP DUP2 MSTORE PUSH1 0x20 ADD SWAP1 PUSH1 0x1 ADD SWAP1 PUSH2 0x4A5 JUMP JUMPDEST POP POP POP POP SWAP1 POP SWAP1 JUMP JUMPDEST PUSH1 0x1 DUP1 PUSH1 0x0 ADD SLOAD SWAP1 DUP1 PUSH1 0x1 ADD SLOAD SWAP1 DUP1 PUSH1 0x2 ADD PUSH1 0x0 SWAP1 SLOAD SWAP1 PUSH2 0x100 EXP SWAP1 DIV PUSH1 0xFF AND SWAP1 DUP1 PUSH1 0x3 ADD SLOAD SWAP1 POP DUP5 JUMP JUMPDEST PUSH1 0x0 PUSH1 0x8 DUP1 SLOAD SWAP1 POP SWAP1 POP SWAP1 JUMP JUMPDEST PUSH1 0x8 DUP2 DUP2 SLOAD DUP2 LT PUSH2 0x77A JUMPI PUSH1 0x0 DUP1 REVERT JUMPDEST SWAP1 PUSH1 0x0 MSTORE PUSH1 0x20 PUSH1 0x0 KECCAK256 SWAP1 PUSH1 0x5 MUL ADD PUSH1 0x0 SWAP2 POP SWAP1 POP DUP1 PUSH1 0x0 ADD SLOAD SWAP1 DUP1 PUSH1 0x1 ADD DUP1 SLOAD PUSH2 0x7A3 SWAP1 PUSH2 0x1CA8 JUMP JUMPDEST DUP1 PUSH1 0x1F ADD PUSH1 0x20 DUP1 SWAP2 DIV MUL PUSH1 0x20 ADD PUSH1 0x40 MLOAD SWAP1 DUP2 ADD PUSH1 0x40 MSTORE DUP1 SWAP3 SWAP2 SWAP1 DUP2 DUP2 MSTORE PUSH1 0x20 ADD DUP3 DUP1 SLOAD PUSH2 0x7CF SWAP1 PUSH2 0x1CA8 JUMP JUMPDEST DUP1 ISZERO PUSH2 0x81C JUMPI DUP1 PUSH1 0x1F LT PUSH2 0x7F1 JUMPI PUSH2 0x100 DUP1 DUP4 SLOAD DIV MUL DUP4 MSTORE SWAP2 PUSH1 0x20 ADD SWAP2 PUSH2 0x81C JUMP JUMPDEST DUP3 ADD SWAP2 SWAP1 PUSH1 0x0 MSTORE PUSH1 0x20 PUSH1 0x0 KECCAK256 SWAP1 JUMPDEST DUP2 SLOAD DUP2 MSTORE SWAP1 PUSH1 0x1 ADD SWAP1 PUSH1 0x20 ADD DUP1 DUP4 GT PUSH2 0x7FF JUMPI DUP3 SWAP1 SUB PUSH1 0x1F AND DUP3 ADD SWAP2 JUMPDEST POP POP POP POP POP SWAP1 DUP1 PUSH1 0x2 ADD DUP1 SLOAD PUSH2 0x831 SWAP1 PUSH2 0x1CA8 JUMP JUMPDEST DUP1 PUSH1 0x1F ADD PUSH1 0x20 DUP1 SWAP2 DIV MUL PUSH1 0x20 ADD PUSH1 0x40 MLOAD SWAP1 DUP2 ADD PUSH1 0x40 MSTORE DUP1 SWAP3 SWAP2 SWAP1 DUP2 DUP2 MSTORE PUSH1 0x20 ADD DUP3 DUP1 SLOAD PUSH2 0x85D SWAP1 PUSH2 0x1CA8 JUMP JUMPDEST DUP1 ISZERO PUSH2 0x8AA JUMPI DUP1 PUSH1 0x1F LT PUSH2 0x87F JUMPI PUSH2 0x100 DUP1 DUP4 SLOAD DIV MUL DUP4 MSTORE SWAP2 PUSH1 0x20 ADD SWAP2 PUSH2 0x8AA JUMP JUMPDEST DUP3 ADD SWAP2 SWAP1 PUSH1 0x0 MSTORE PUSH1 0x20 PUSH1 0x0 KECCAK256 SWAP1 JUMPDEST DUP2 SLOAD DUP2 MSTORE SWAP1 PUSH1 0x1 ADD SWAP1 PUSH1 0x20 ADD DUP1 DUP4 GT PUSH2 0x88D JUMPI DUP3 SWAP1 SUB PUSH1 0x1F AND DUP3 ADD SWAP2 JUMPDEST POP POP POP POP POP SWAP1 DUP1 PUSH1 0x3 ADD DUP1 SLOAD PUSH2 0x8BF SWAP1 PUSH2 0x1CA8 JUMP JUMPDEST DUP1 PUSH1 0x1F ADD PUSH1 0x20 DUP1 SWAP2 DIV MUL PUSH1 0x20 ADD PUSH1 0x40 MLOAD SWAP1 DUP2 ADD PUSH1 0x40 MSTORE DUP1 SWAP3 SWAP2 SWAP1 DUP2 DUP2 MSTORE PUSH1 0x20 ADD DUP3 DUP1 SLOAD PUSH2 0x8EB SWAP1 PUSH2 0x1CA8 JUMP JUMPDEST DUP1 ISZERO PUSH2 0x938 JUMPI DUP1 PUSH1 0x1F LT PUSH2 0x90D JUMPI PUSH2 0x100 DUP1 DUP4 SLOAD DIV MUL DUP4 MSTORE SWAP2 PUSH1 0x20 ADD SWAP2 PUSH2 0x938 JUMP JUMPDEST DUP3 ADD SWAP2 SWAP1 PUSH1 0x0 MSTORE PUSH1 0x20 PUSH1 0x0 KECCAK256 SWAP1 JUMPDEST DUP2 SLOAD DUP2 MSTORE SWAP1 PUSH1 0x1 ADD SWAP1 PUSH1 0x20 ADD DUP1 DUP4 GT PUSH2 0x91B JUMPI DUP3 SWAP1 SUB PUSH1 0x1F AND DUP3 ADD SWAP2 JUMPDEST POP POP POP POP POP SWAP1 DUP1 PUSH1 0x4 ADD DUP1 SLOAD PUSH2 0x94D SWAP1 PUSH2 0x1CA8 JUMP JUMPDEST DUP1 PUSH1 0x1F ADD PUSH1 0x20 DUP1 SWAP2 DIV MUL PUSH1 0x20 ADD PUSH1 0x40 MLOAD SWAP1 DUP2 ADD PUSH1 0x40 MSTORE DUP1 SWAP3 SWAP2 SWAP1 DUP2 DUP2 MSTORE PUSH1 0x20 ADD DUP3 DUP1 SLOAD PUSH2 0x979 SWAP1 PUSH2 0x1CA8 JUMP JUMPDEST DUP1 ISZERO PUSH2 0x9C6 JUMPI DUP1 PUSH1 0x1F LT PUSH2 0x99B JUMPI PUSH2 0x100 DUP1 DUP4 SLOAD DIV MUL DUP4 MSTORE SWAP2 PUSH1 0x20 ADD SWAP2 PUSH2 0x9C6 JUMP JUMPDEST DUP3 ADD SWAP2 SWAP1 PUSH1 0x0 MSTORE PUSH1 0x20 PUSH1 0x0 KECCAK256 SWAP1 JUMPDEST DUP2 SLOAD DUP2 MSTORE SWAP1 PUSH1 0x1 ADD SWAP1 PUSH1 0x20 ADD DUP1 DUP4 GT PUSH2 0x9A9 JUMPI DUP3 SWAP1 SUB PUSH1 0x1F AND DUP3 ADD SWAP2 JUMPDEST POP POP POP POP POP SWAP1 POP DUP6 JUMP JUMPDEST PUSH1 0x5 DUP2 DUP1 MLOAD PUSH1 0x20 DUP2 ADD DUP3 ADD DUP1 MLOAD DUP5 DUP3 MSTORE PUSH1 0x20 DUP4 ADD PUSH1 0x20 DUP6 ADD KECCAK256 DUP2 DUP4 MSTORE DUP1 SWAP6 POP POP POP POP POP POP PUSH1 0x0 SWAP2 POP SLOAD SWAP1 PUSH2 0x100 EXP SWAP1 DIV PUSH1 0xFF AND DUP2 JUMP JUMPDEST PUSH1 0x0 PUSH1 0x1 PUSH1 0x2 ADD PUSH1 0x0 SWAP1 SLOAD SWAP1 PUSH2 0x100 EXP SWAP1 DIV PUSH1 0xFF AND DUP1 ISZERO PUSH2 0xA2B JUMPI POP PUSH1 0x1 DUP1 ADD SLOAD TIMESTAMP GT ISZERO JUMPDEST SWAP1 POP SWAP1 JUMP JUMPDEST PUSH2 0xA38 PUSH2 0x1145 JUMP JUMPDEST PUSH2 0xA42 PUSH1 0x0 PUSH2 0x11CC JUMP JUMPDEST JUMP JUMPDEST PUSH1 0x0 PUSH1 0x1 PUSH1 0x2 ADD PUSH1 0x0 SWAP1 SLOAD SWAP1 PUSH2 0x100 EXP SWAP1 DIV PUSH1 0xFF AND ISZERO DUP1 PUSH2 0xA68 JUMPI POP PUSH1 0x1 DUP1 ADD SLOAD TIMESTAMP GT JUMPDEST PUSH2 0xAA7 JUMPI PUSH1 0x40 MLOAD PUSH32 0x8C379A000000000000000000000000000000000000000000000000000000000 DUP2 MSTORE PUSH1 0x4 ADD PUSH2 0xA9E SWAP1 PUSH2 0x1BED JUMP JUMPDEST PUSH1 0x40 MLOAD DUP1 SWAP2 SUB SWAP1 REVERT JUMPDEST PUSH1 0x9 PUSH1 0x0 DUP4 DUP2 MSTORE PUSH1 0x20 ADD SWAP1 DUP2 MSTORE PUSH1 0x20 ADD PUSH1 0x0 KECCAK256 PUSH1 0x0 SWAP1 SLOAD SWAP1 PUSH2 0x100 EXP SWAP1 DIV PUSH1 0xFF AND PUSH2 0xB07 JUMPI PUSH1 0x40 MLOAD PUSH32 0x8C379A000000000000000000000000000000000000000000000000000000000 DUP2 MSTORE PUSH1 0x4 ADD PUSH2 0xAFE SWAP1 PUSH2 0x1C59 JUMP JUMPDEST PUSH1 0x40 MLOAD DUP1 SWAP2 SUB SWAP1 REVERT JUMPDEST PUSH1 0x6 PUSH1 0x0 DUP4 DUP2 MSTORE PUSH1 0x20 ADD SWAP1 DUP2 MSTORE PUSH1 0x20 ADD PUSH1 0x0 KECCAK256 DUP1 SLOAD SWAP1 POP SWAP1 POP SWAP2 SWAP1 POP JUMP JUMPDEST PUSH1 0x7 DUP2 DUP2 SLOAD DUP2 LT PUSH2 0xB35 JUMPI PUSH1 0x0 DUP1 REVERT JUMPDEST SWAP1 PUSH1 0x0 MSTORE PUSH1 0x20 PUSH1 0x0 KECCAK256 ADD PUSH1 0x0 SWAP2 POP SWAP1 POP DUP1 SLOAD PUSH2 0xB50 SWAP1 PUSH2 0x1CA8 JUMP JUMPDEST DUP1 PUSH1 0x1F ADD PUSH1 0x20 DUP1 SWAP2 DIV MUL PUSH1 0x20 ADD PUSH1 0x40 MLOAD SWAP1 DUP2 ADD PUSH1 0x40 MSTORE DUP1 SWAP3 SWAP2 SWAP1 DUP2 DUP2 MSTORE PUSH1 0x20 ADD DUP3 DUP1 SLOAD PUSH2 0xB7C SWAP1 PUSH2 0x1CA8 JUMP JUMPDEST DUP1 ISZERO PUSH2 0xBC9 JUMPI DUP1 PUSH1 0x1F LT PUSH2 0xB9E JUMPI PUSH2 0x100 DUP1 DUP4 SLOAD DIV MUL DUP4 MSTORE SWAP2 PUSH1 0x20 ADD SWAP2 PUSH2 0xBC9 JUMP JUMPDEST DUP3 ADD SWAP2 SWAP1 PUSH1 0x0 MSTORE PUSH1 0x20 PUSH1 0x0 KECCAK256 SWAP1 JUMPDEST DUP2 SLOAD DUP2 MSTORE SWAP1 PUSH1 0x1 ADD SWAP1 PUSH1 0x20 ADD DUP1 DUP4 GT PUSH2 0xBAC JUMPI DUP3 SWAP1 SUB PUSH1 0x1F AND DUP3 ADD SWAP2 JUMPDEST POP POP POP POP POP DUP2 JUMP JUMPDEST PUSH1 0x0 DUP1 PUSH1 0x0 SWAP1 SLOAD SWAP1 PUSH2 0x100 EXP SWAP1 DIV PUSH20 0xFFFFFFFFFFFFFFFFFFFFFFFFFFFFFFFFFFFFFFFF AND SWAP1 POP SWAP1 JUMP JUMPDEST PUSH1 0x9 PUSH1 0x20 MSTORE DUP1 PUSH1 0x0 MSTORE PUSH1 0x40 PUSH1 0x0 KECCAK256 PUSH1 0x0 SWAP2 POP SLOAD SWAP1 PUSH2 0x100 EXP SWAP1 DIV PUSH1 0xFF AND DUP2 JUMP JUMPDEST PUSH2 0xC22 PUSH2 0x1145 JUMP JUMPDEST PUSH1 0x1 PUSH1 0x2 ADD PUSH1 0x0 SWAP1 SLOAD SWAP1 PUSH2 0x100 EXP SWAP1 DIV PUSH1 0xFF AND PUSH2 0xC74 JUMPI PUSH1 0x40 MLOAD PUSH32 0x8C379A000000000000000000000000000000000000000000000000000000000 DUP2 MSTORE PUSH1 0x4 ADD PUSH2 0xC6B SWAP1 PUSH2 0x1D25 JUMP JUMPDEST PUSH1 0x40 MLOAD DUP1 SWAP2 SUB SWAP1 REVERT JUMPDEST PUSH1 0x0 PUSH1 0x1 PUSH1 0x2 ADD PUSH1 0x0 PUSH2 0x100 EXP DUP2 SLOAD DUP2 PUSH1 0xFF MUL NOT AND SWAP1 DUP4 ISZERO ISZERO MUL OR SWAP1 SSTORE POP PUSH32 0x7A19ED057DB79E3C2FA0B97A54B43BEF4FCE74B31BB6C01AF514B9A18A7F70AB PUSH1 0x40 MLOAD PUSH1 0x40 MLOAD DUP1 SWAP2 SUB SWAP1 LOG1 JUMP JUMPDEST PUSH1 0x1 PUSH1 0x2 ADD PUSH1 0x0 SWAP1 SLOAD SWAP1 PUSH2 0x100 EXP SWAP1 DIV PUSH1 0xFF AND PUSH2 0xD12 JUMPI PUSH1 0x40 MLOAD PUSH32 0x8C379A000000000000000000000000000000000000000000000000000000000 DUP2 MSTORE PUSH1 0x4 ADD PUSH2 0xD09 SWAP1 PUSH2 0x1D25 JUMP JUMPDEST PUSH1 0x40 MLOAD DUP1 SWAP2 SUB SWAP1 REVERT JUMPDEST PUSH1 0x1 DUP1 ADD SLOAD TIMESTAMP GT ISZERO PUSH2 0xD59 JUMPI PUSH1 0x40 MLOAD PUSH32 0x8C379A000000000000000000000000000000000000000000000000000000000 DUP2 MSTORE PUSH1 0x4 ADD PUSH2 0xD50 SWAP1 PUSH2 0x1D91 JUMP JUMPDEST PUSH1 0x40 MLOAD DUP1 SWAP2 SUB SWAP1 REVERT JUMPDEST PUSH1 0x5 DUP4 DUP4 PUSH1 0x40 MLOAD PUSH2 0xD6B SWAP3 SWAP2 SWAP1 PUSH2 0x1DE1 JUMP JUMPDEST SWAP1 DUP2 MSTORE PUSH1 0x20 ADD PUSH1 0x40 MLOAD DUP1 SWAP2 SUB SWAP1 KECCAK256 PUSH1 0x0 SWAP1 SLOAD SWAP1 PUSH2 0x100 EXP SWAP1 DIV PUSH1 0xFF AND ISZERO PUSH2 0xDC7 JUMPI PUSH1 0x40 MLOAD PUSH32 0x8C379A000000000000000000000000000000000000000000000000000000000 DUP2 MSTORE PUSH1 0x4 ADD PUSH2 0xDBE SWAP1 PUSH2 0x1E46 JUMP JUMPDEST PUSH1 0x40 MLOAD DUP1 SWAP2 SUB SWAP1 REVERT JUMPDEST PUSH1 0x9 PUSH1 0x0 DUP3 DUP2 MSTORE PUSH1 0x20 ADD SWAP1 DUP2 MSTORE PUSH1 0x20 ADD PUSH1 0x0 KECCAK256 PUSH1 0x0 SWAP1 SLOAD SWAP1 PUSH2 0x100 EXP SWAP1 DIV PUSH1 0xFF AND PUSH2 0xE27 JUMPI PUSH1 0x40 MLOAD PUSH32 0x8C379A000000000000000000000000000000000000000000000000000000000 DUP2 MSTORE PUSH1 0x4 ADD PUSH2 0xE1E SWAP1 PUSH2 0x1C59 JUMP JUMPDEST PUSH1 0x40 MLOAD DUP1 SWAP2 SUB SWAP1 REVERT JUMPDEST PUSH1 0x0 PUSH2 0xE31 PUSH2 0x1290 JUMP JUMPDEST SWAP1 POP PUSH1 0x1 PUSH1 0x5 DUP6 DUP6 PUSH1 0x40 MLOAD PUSH2 0xE47 SWAP3 SWAP2 SWAP1 PUSH2 0x1DE1 JUMP JUMPDEST SWAP1 DUP2 MSTORE PUSH1 0x20 ADD PUSH1 0x40 MLOAD DUP1 SWAP2 SUB SWAP1 KECCAK256 PUSH1 0x0 PUSH2 0x100 EXP DUP2 SLOAD DUP2 PUSH1 0xFF MUL NOT AND SWAP1 DUP4 ISZERO ISZERO MUL OR SWAP1 SSTORE POP PUSH1 0x7 DUP5 DUP5 SWAP1 SWAP2 DUP1 PUSH1 0x1 DUP2 SLOAD ADD DUP1 DUP3 SSTORE DUP1 SWAP2 POP POP PUSH1 0x1 SWAP1 SUB SWAP1 PUSH1 0x0 MSTORE PUSH1 0x20 PUSH1 0x0 KECCAK256 ADD PUSH1 0x0 SWAP1 SWAP2 SWAP3 SWAP1 SWAP2 SWAP3 SWAP1 SWAP2 SWAP3 SWAP1 SWAP2 SWAP3 POP SWAP2 DUP3 PUSH2 0xEA9 SWAP3 SWAP2 SWAP1 PUSH2 0x201D JUMP JUMPDEST POP PUSH1 0x6 PUSH1 0x0 DUP4 DUP2 MSTORE PUSH1 0x20 ADD SWAP1 DUP2 MSTORE PUSH1 0x20 ADD PUSH1 0x0 KECCAK256 DUP2 SWAP1 DUP1 PUSH1 0x1 DUP2 SLOAD ADD DUP1 DUP3 SSTORE DUP1 SWAP2 POP POP PUSH1 0x1 SWAP1 SUB SWAP1 PUSH1 0x0 MSTORE PUSH1 0x20 PUSH1 0x0 KECCAK256 ADD PUSH1 0x0 SWAP1 SWAP2 SWAP1 SWAP2 SWAP1 SWAP2 POP SSTORE PUSH1 0x1 PUSH1 0x3 ADD PUSH1 0x0 DUP2 SLOAD DUP1 SWAP3 SWAP2 SWAP1 PUSH2 0xEFA SWAP1 PUSH2 0x211C JUMP JUMPDEST SWAP2 SWAP1 POP SSTORE POP PUSH32 0x94B9B209597B37568A0FB4B924237E6E679E8E7BB88CF375DBCF4229C2D5E642 DUP2 PUSH1 0x40 MLOAD PUSH2 0xF2E SWAP2 SWAP1 PUSH2 0x16B9 JUMP JUMPDEST PUSH1 0x40 MLOAD DUP1 SWAP2 SUB SWAP1 LOG1 POP POP POP POP JUMP JUMPDEST PUSH1 0x60 PUSH1 0x1 PUSH1 0x2 ADD PUSH1 0x0 SWAP1 SLOAD SWAP1 PUSH2 0x100 EXP SWAP1 DIV PUSH1 0xFF AND ISZERO DUP1 PUSH2 0xF60 JUMPI POP PUSH1 0x1 DUP1 ADD SLOAD TIMESTAMP GT JUMPDEST PUSH2 0xF9F JUMPI PUSH1 0x40 MLOAD PUSH32 0x8C379A000000000000000000000000000000000000000000000000000000000 DUP2 MSTORE PUSH1 0x4 ADD PUSH2 0xF96 SWAP1 PUSH2 0x1BED JUMP JUMPDEST PUSH1 0x40 MLOAD DUP1 SWAP2 SUB SWAP1 REVERT JUMPDEST PUSH1 0x7 DUP1 SLOAD DUP1 PUSH1 0x20 MUL PUSH1 0x20 ADD PUSH1 0x40 MLOAD SWAP1 DUP2 ADD PUSH1 0x40 MSTORE DUP1 SWAP3 SWAP2 SWAP1 DUP2 DUP2 MSTORE PUSH1 0x20 ADD PUSH1 0x0 SWAP1 JUMPDEST DUP3 DUP3 LT ISZERO PUSH2 0x106D JUMPI DUP4 DUP3 SWAP1 PUSH1 0x0 MSTORE PUSH1 0x20 PUSH1 0x0 KECCAK256 ADD DUP1 SLOAD PUSH2 0xFE0 SWAP1 PUSH2 0x1CA8 JUMP JUMPDEST DUP1 PUSH1 0x1F ADD PUSH1 0x20 DUP1 SWAP2 DIV MUL PUSH1 0x20 ADD PUSH1 0x40 MLOAD SWAP1 DUP2 ADD PUSH1 0x40 MSTORE DUP1 SWAP3 SWAP2 SWAP1 DUP2 DUP2 MSTORE PUSH1 0x20 ADD DUP3 DUP1 SLOAD PUSH2 0x100C SWAP1 PUSH2 0x1CA8 JUMP JUMPDEST DUP1 ISZERO PUSH2 0x1059 JUMPI DUP1 PUSH1 0x1F LT PUSH2 0x102E JUMPI PUSH2 0x100 DUP1 DUP4 SLOAD DIV MUL DUP4 MSTORE SWAP2 PUSH1 0x20 ADD SWAP2 PUSH2 0x1059 JUMP JUMPDEST DUP3 ADD SWAP2 SWAP1 PUSH1 0x0 MSTORE PUSH1 0x20 PUSH1 0x0 KECCAK256 SWAP1 JUMPDEST DUP2 SLOAD DUP2 MSTORE SWAP1 PUSH1 0x1 ADD SWAP1 PUSH1 0x20 ADD DUP1 DUP4 GT PUSH2 0x103C JUMPI DUP3 SWAP1 SUB PUSH1 0x1F AND DUP3 ADD SWAP2 JUMPDEST POP POP POP POP POP DUP2 MSTORE PUSH1 0x20 ADD SWAP1 PUSH1 0x1 ADD SWAP1 PUSH2 0xFC1 JUMP JUMPDEST POP POP POP POP SWAP1 POP SWAP1 JUMP JUMPDEST PUSH1 0x0 PUSH1 0x1 PUSH1 0x2 ADD PUSH1 0x0 SWAP1 SLOAD SWAP1 PUSH2 0x100 EXP SWAP1 DIV PUSH1 0xFF AND ISZERO DUP1 PUSH2 0x109B JUMPI POP PUSH1 0x1 DUP1 ADD SLOAD TIMESTAMP LT ISZERO JUMPDEST ISZERO PUSH2 0x10A9 JUMPI PUSH1 0x0 SWAP1 POP PUSH2 0x10BC JUMP JUMPDEST TIMESTAMP PUSH1 0x1 DUP1 ADD SLOAD PUSH2 0x10B9 SWAP2 SWAP1 PUSH2 0x2164 JUMP JUMPDEST SWAP1 POP JUMPDEST SWAP1 JUMP JUMPDEST PUSH2 0x10C7 PUSH2 0x1145 JUMP JUMPDEST PUSH1 0x0 PUSH20 0xFFFFFFFFFFFFFFFFFFFFFFFFFFFFFFFFFFFFFFFF AND DUP2 PUSH20 0xFFFFFFFFFFFFFFFFFFFFFFFFFFFFFFFFFFFFFFFF AND SUB PUSH2 0x1139 JUMPI PUSH1 0x0 PUSH1 0x40 MLOAD PUSH32 0x1E4FBDF700000000000000000000000000000000000000000000000000000000 DUP2 MSTORE PUSH1 0x4 ADD PUSH2 0x1130 SWAP2 SWAP1 PUSH2 0x1989 JUMP JUMPDEST PUSH1 0x40 MLOAD DUP1 SWAP2 SUB SWAP1 REVERT JUMPDEST PUSH2 0x1142 DUP2 PUSH2 0x11CC JUMP JUMPDEST POP JUMP JUMPDEST PUSH2 0x114D PUSH2 0x12EC JUMP JUMPDEST PUSH20 0xFFFFFFFFFFFFFFFFFFFFFFFFFFFFFFFFFFFFFFFF AND PUSH2 0x116B PUSH2 0xBD1 JUMP JUMPDEST PUSH20 0xFFFFFFFFFFFFFFFFFFFFFFFFFFFFFFFFFFFFFFFF AND EQ PUSH2 0x11CA JUMPI PUSH2 0x118E PUSH2 0x12EC JUMP JUMPDEST PUSH1 0x40 MLOAD PUSH32 0x118CDAA700000000000000000000000000000000000000000000000000000000 DUP2 MSTORE PUSH1 0x4 ADD PUSH2 0x11C1 SWAP2 SWAP1 PUSH2 0x1989 JUMP JUMPDEST PUSH1 0x40 MLOAD DUP1 SWAP2 SUB SWAP1 REVERT JUMPDEST JUMP JUMPDEST PUSH1 0x0 DUP1 PUSH1 0x0 SWAP1 SLOAD SWAP1 PUSH2 0x100 EXP SWAP1 DIV PUSH20 0xFFFFFFFFFFFFFFFFFFFFFFFFFFFFFFFFFFFFFFFF AND SWAP1 POP DUP2 PUSH1 0x0 DUP1 PUSH2 0x100 EXP DUP2 SLOAD DUP2 PUSH20 0xFFFFFFFFFFFFFFFFFFFFFFFFFFFFFFFFFFFFFFFF MUL NOT AND SWAP1 DUP4 PUSH20 0xFFFFFFFFFFFFFFFFFFFFFFFFFFFFFFFFFFFFFFFF AND MUL OR SWAP1 SSTORE POP DUP2 PUSH20 0xFFFFFFFFFFFFFFFFFFFFFFFFFFFFFFFFFFFFFFFF AND DUP2 PUSH20 0xFFFFFFFFFFFFFFFFFFFFFFFFFFFFFFFFFFFFFFFF AND PUSH32 0x8BE0079C531659141344CD1FD0A4F28419497F9722A3DAAFE3B4186F6B6457E0 PUSH1 0x40 MLOAD PUSH1 0x40 MLOAD DUP1 SWAP2 SUB SWAP1 LOG3 POP POP JUMP JUMPDEST PUSH1 0x0 DUP1 PUSH2 0x2710 PUSH3 0x15F90 TIMESTAMP PREVRANDAO CALLER PUSH1 0x1 PUSH1 0x3 ADD SLOAD PUSH1 0x40 MLOAD PUSH1 0x20 ADD PUSH2 0x12B6 SWAP5 SWAP4 SWAP3 SWAP2 SWAP1 PUSH2 0x2201 JUMP JUMPDEST PUSH1 0x40 MLOAD PUSH1 0x20 DUP2 DUP4 SUB SUB DUP2 MSTORE SWAP1 PUSH1 0x40 MSTORE DUP1 MLOAD SWAP1 PUSH1 0x20 ADD KECCAK256 PUSH1 0x0 SHR PUSH2 0x12D9 SWAP2 SWAP1 PUSH2 0x227E JUMP JUMPDEST PUSH2 0x12E3 SWAP2 SWAP1 PUSH2 0x22AF JUMP JUMPDEST SWAP1 POP DUP1 SWAP2 POP POP SWAP1 JUMP JUMPDEST PUSH1 0x0 CALLER SWAP1 POP SWAP1 JUMP JUMPDEST PUSH1 0x0 PUSH1 0x40 MLOAD SWAP1 POP SWAP1 JUMP JUMPDEST PUSH1 0x0 DUP1 REVERT JUMPDEST PUSH1 0x0 DUP1 REVERT JUMPDEST PUSH1 0x0 DUP2 SWAP1 POP SWAP2 SWAP1 POP JUMP JUMPDEST PUSH2 0x131B DUP2 PUSH2 0x1308 JUMP JUMPDEST DUP2 EQ PUSH2 0x1326 JUMPI PUSH1 0x0 DUP1 REVERT JUMPDEST POP JUMP JUMPDEST PUSH1 0x0 DUP2 CALLDATALOAD SWAP1 POP PUSH2 0x1338 DUP2 PUSH2 0x1312 JUMP JUMPDEST SWAP3 SWAP2 POP POP JUMP JUMPDEST PUSH1 0x0 PUSH1 0x20 DUP3 DUP5 SUB SLT ISZERO PUSH2 0x1354 JUMPI PUSH2 0x1353 PUSH2 0x12FE JUMP JUMPDEST JUMPDEST PUSH1 0x0 PUSH2 0x1362 DUP5 DUP3 DUP6 ADD PUSH2 0x1329 JUMP JUMPDEST SWAP2 POP POP SWAP3 SWAP2 POP POP JUMP JUMPDEST PUSH1 0x0 DUP2 MLOAD SWAP1 POP SWAP2 SWAP1 POP JUMP JUMPDEST PUSH1 0x0 DUP3 DUP3 MSTORE PUSH1 0x20 DUP3 ADD SWAP1 POP SWAP3 SWAP2 POP POP JUMP JUMPDEST PUSH1 0x0 DUP2 SWAP1 POP PUSH1 0x20 DUP3 ADD SWAP1 POP SWAP2 SWAP1 POP JUMP JUMPDEST PUSH2 0x13A0 DUP2 PUSH2 0x1308 JUMP JUMPDEST DUP3 MSTORE POP POP JUMP JUMPDEST PUSH1 0x0 PUSH2 0x13B2 DUP4 DUP4 PUSH2 0x1397 JUMP JUMPDEST PUSH1 0x20 DUP4 ADD SWAP1 POP SWAP3 SWAP2 POP POP JUMP JUMPDEST PUSH1 0x0 PUSH1 0x20 DUP3 ADD SWAP1 POP SWAP2 SWAP1 POP JUMP JUMPDEST PUSH1 0x0 PUSH2 0x13D6 DUP3 PUSH2 0x136B JUMP JUMPDEST PUSH2 0x13E0 DUP2 DUP6 PUSH2 0x1376 JUMP JUMPDEST SWAP4 POP PUSH2 0x13EB DUP4 PUSH2 0x1387 JUMP JUMPDEST DUP1 PUSH1 0x0 JUMPDEST DUP4 DUP2 LT ISZERO PUSH2 0x141C JUMPI DUP2 MLOAD PUSH2 0x1403 DUP9 DUP3 PUSH2 0x13A6 JUMP JUMPDEST SWAP8 POP PUSH2 0x140E DUP4 PUSH2 0x13BE JUMP JUMPDEST SWAP3 POP POP PUSH1 0x1 DUP2 ADD SWAP1 POP PUSH2 0x13EF JUMP JUMPDEST POP DUP6 SWAP4 POP POP POP POP SWAP3 SWAP2 POP POP JUMP JUMPDEST PUSH1 0x0 PUSH1 0x20 DUP3 ADD SWAP1 POP DUP2 DUP2 SUB PUSH1 0x0 DUP4 ADD MSTORE PUSH2 0x1443 DUP2 DUP5 PUSH2 0x13CB JUMP JUMPDEST SWAP1 POP SWAP3 SWAP2 POP POP JUMP JUMPDEST PUSH1 0x0 DUP2 MLOAD SWAP1 POP SWAP2 SWAP1 POP JUMP JUMPDEST PUSH1 0x0 DUP3 DUP3 MSTORE PUSH1 0x20 DUP3 ADD SWAP1 POP SWAP3 SWAP2 POP POP JUMP JUMPDEST PUSH1 0x0 DUP2 SWAP1 POP PUSH1 0x20 DUP3 ADD SWAP1 POP SWAP2 SWAP1 POP JUMP JUMPDEST PUSH1 0x0 DUP2 MLOAD SWAP1 POP SWAP2 SWAP1 POP JUMP JUMPDEST PUSH1 0x0 DUP3 DUP3 MSTORE PUSH1 0x20 DUP3 ADD SWAP1 POP SWAP3 SWAP2 POP POP JUMP JUMPDEST PUSH1 0x0 JUMPDEST DUP4 DUP2 LT ISZERO PUSH2 0x14B1 JUMPI DUP1 DUP3 ADD MLOAD DUP2 DUP5 ADD MSTORE PUSH1 0x20 DUP2 ADD SWAP1 POP PUSH2 0x1496 JUMP JUMPDEST PUSH1 0x0 DUP5 DUP5 ADD MSTORE POP POP POP POP JUMP JUMPDEST PUSH1 0x0 PUSH1 0x1F NOT PUSH1 0x1F DUP4 ADD AND SWAP1 POP SWAP2 SWAP1 POP JUMP JUMPDEST PUSH1 0x0 PUSH2 0x14D9 DUP3 PUSH2 0x1477 JUMP JUMPDEST PUSH2 0x14E3 DUP2 DUP6 PUSH2 0x1482 JUMP JUMPDEST SWAP4 POP PUSH2 0x14F3 DUP2 DUP6 PUSH1 0x20 DUP7 ADD PUSH2 0x1493 JUMP JUMPDEST PUSH2 0x14FC DUP2 PUSH2 0x14BD JUMP JUMPDEST DUP5 ADD SWAP2 POP POP SWAP3 SWAP2 POP POP JUMP JUMPDEST PUSH1 0x0 PUSH1 0xA0 DUP4 ADD PUSH1 0x0 DUP4 ADD MLOAD PUSH2 0x151F PUSH1 0x0 DUP7 ADD DUP3 PUSH2 0x1397 JUMP JUMPDEST POP PUSH1 0x20 DUP4 ADD MLOAD DUP5 DUP3 SUB PUSH1 0x20 DUP7 ADD MSTORE PUSH2 0x1537 DUP3 DUP3 PUSH2 0x14CE JUMP JUMPDEST SWAP2 POP POP PUSH1 0x40 DUP4 ADD MLOAD DUP5 DUP3 SUB PUSH1 0x40 DUP7 ADD MSTORE PUSH2 0x1551 DUP3 DUP3 PUSH2 0x14CE JUMP JUMPDEST SWAP2 POP POP PUSH1 0x60 DUP4 ADD MLOAD DUP5 DUP3 SUB PUSH1 0x60 DUP7 ADD MSTORE PUSH2 0x156B DUP3 DUP3 PUSH2 0x14CE JUMP JUMPDEST SWAP2 POP POP PUSH1 0x80 DUP4 ADD MLOAD DUP5 DUP3 SUB PUSH1 0x80 DUP7 ADD MSTORE PUSH2 0x1585 DUP3 DUP3 PUSH2 0x14CE JUMP JUMPDEST SWAP2 POP POP DUP1 SWAP2 POP POP SWAP3 SWAP2 POP POP JUMP JUMPDEST PUSH1 0x0 PUSH2 0x159E DUP4 DUP4 PUSH2 0x1507 JUMP JUMPDEST SWAP1 POP SWAP3 SWAP2 POP POP JUMP JUMPDEST PUSH1 0x0 PUSH1 0x20 DUP3 ADD SWAP1 POP SWAP2 SWAP1 POP JUMP JUMPDEST PUSH1 0x0 PUSH2 0x15BE DUP3 PUSH2 0x144B JUMP JUMPDEST PUSH2 0x15C8 DUP2 DUP6 PUSH2 0x1456 JUMP JUMPDEST SWAP4 POP DUP4 PUSH1 0x20 DUP3 MUL DUP6 ADD PUSH2 0x15DA DUP6 PUSH2 0x1467 JUMP JUMPDEST DUP1 PUSH1 0x0 JUMPDEST DUP6 DUP2 LT ISZERO PUSH2 0x1616 JUMPI DUP5 DUP5 SUB DUP10 MSTORE DUP2 MLOAD PUSH2 0x15F7 DUP6 DUP3 PUSH2 0x1592 JUMP JUMPDEST SWAP5 POP PUSH2 0x1602 DUP4 PUSH2 0x15A6 JUMP JUMPDEST SWAP3 POP PUSH1 0x20 DUP11 ADD SWAP10 POP POP PUSH1 0x1 DUP2 ADD SWAP1 POP PUSH2 0x15DE JUMP JUMPDEST POP DUP3 SWAP8 POP DUP8 SWAP6 POP POP POP POP POP POP SWAP3 SWAP2 POP POP JUMP JUMPDEST PUSH1 0x0 PUSH1 0x20 DUP3 ADD SWAP1 POP DUP2 DUP2 SUB PUSH1 0x0 DUP4 ADD MSTORE PUSH2 0x1642 DUP2 DUP5 PUSH2 0x15B3 JUMP JUMPDEST SWAP1 POP SWAP3 SWAP2 POP POP JUMP JUMPDEST PUSH2 0x1653 DUP2 PUSH2 0x1308 JUMP JUMPDEST DUP3 MSTORE POP POP JUMP JUMPDEST PUSH1 0x0 DUP2 ISZERO ISZERO SWAP1 POP SWAP2 SWAP1 POP JUMP JUMPDEST PUSH2 0x166E DUP2 PUSH2 0x1659 JUMP JUMPDEST DUP3 MSTORE POP POP JUMP JUMPDEST PUSH1 0x0 PUSH1 0x80 DUP3 ADD SWAP1 POP PUSH2 0x1689 PUSH1 0x0 DUP4 ADD DUP8 PUSH2 0x164A JUMP JUMPDEST PUSH2 0x1696 PUSH1 0x20 DUP4 ADD DUP7 PUSH2 0x164A JUMP JUMPDEST PUSH2 0x16A3 PUSH1 0x40 DUP4 ADD DUP6 PUSH2 0x1665 JUMP JUMPDEST PUSH2 0x16B0 PUSH1 0x60 DUP4 ADD DUP5 PUSH2 0x164A JUMP JUMPDEST SWAP6 SWAP5 POP POP POP POP POP JUMP JUMPDEST PUSH1 0x0 PUSH1 0x20 DUP3 ADD SWAP1 POP PUSH2 0x16CE PUSH1 0x0 DUP4 ADD DUP5 PUSH2 0x164A JUMP JUMPDEST SWAP3 SWAP2 POP POP JUMP JUMPDEST PUSH1 0x0 DUP3 DUP3 MSTORE PUSH1 0x20 DUP3 ADD SWAP1 POP SWAP3 SWAP2 POP POP JUMP JUMPDEST PUSH1 0x0 PUSH2 0x16F0 DUP3 PUSH2 0x1477 JUMP JUMPDEST PUSH2 0x16FA DUP2 DUP6 PUSH2 0x16D4 JUMP JUMPDEST SWAP4 POP PUSH2 0x170A DUP2 DUP6 PUSH1 0x20 DUP7 ADD PUSH2 0x1493 JUMP JUMPDEST PUSH2 0x1713 DUP2 PUSH2 0x14BD JUMP JUMPDEST DUP5 ADD SWAP2 POP POP SWAP3 SWAP2 POP POP JUMP JUMPDEST PUSH1 0x0 PUSH1 0xA0 DUP3 ADD SWAP1 POP PUSH2 0x1733 PUSH1 0x0 DUP4 ADD DUP9 PUSH2 0x164A JUMP JUMPDEST DUP2 DUP2 SUB PUSH1 0x20 DUP4 ADD MSTORE PUSH2 0x1745 DUP2 DUP8 PUSH2 0x16E5 JUMP JUMPDEST SWAP1 POP DUP2 DUP2 SUB PUSH1 0x40 DUP4 ADD MSTORE PUSH2 0x1759 DUP2 DUP7 PUSH2 0x16E5 JUMP JUMPDEST SWAP1 POP DUP2 DUP2 SUB PUSH1 0x60 DUP4 ADD MSTORE PUSH2 0x176D DUP2 DUP6 PUSH2 0x16E5 JUMP JUMPDEST SWAP1 POP DUP2 DUP2 SUB PUSH1 0x80 DUP4 ADD MSTORE PUSH2 0x1781 DUP2 DUP5 PUSH2 0x16E5 JUMP JUMPDEST SWAP1 POP SWAP7 SWAP6 POP POP POP POP POP POP JUMP JUMPDEST PUSH1 0x0 DUP1 REVERT JUMPDEST PUSH1 0x0 DUP1 REVERT JUMPDEST PUSH32 0x4E487B7100000000000000000000000000000000000000000000000000000000 PUSH1 0x0 MSTORE PUSH1 0x41 PUSH1 0x4 MSTORE PUSH1 0x24 PUSH1 0x0 REVERT JUMPDEST PUSH2 0x17CF DUP3 PUSH2 0x14BD JUMP JUMPDEST DUP2 ADD DUP2 DUP2 LT PUSH8 0xFFFFFFFFFFFFFFFF DUP3 GT OR ISZERO PUSH2 0x17EE JUMPI PUSH2 0x17ED PUSH2 0x1797 JUMP JUMPDEST JUMPDEST DUP1 PUSH1 0x40 MSTORE POP POP POP JUMP JUMPDEST PUSH1 0x0 PUSH2 0x1801 PUSH2 0x12F4 JUMP JUMPDEST SWAP1 POP PUSH2 0x180D DUP3 DUP3 PUSH2 0x17C6 JUMP JUMPDEST SWAP2 SWAP1 POP JUMP JUMPDEST PUSH1 0x0 PUSH8 0xFFFFFFFFFFFFFFFF DUP3 GT ISZERO PUSH2 0x182D JUMPI PUSH2 0x182C PUSH2 0x1797 JUMP JUMPDEST JUMPDEST PUSH2 0x1836 DUP3 PUSH2 0x14BD JUMP JUMPDEST SWAP1 POP PUSH1 0x20 DUP2 ADD SWAP1 POP SWAP2 SWAP1 POP JUMP JUMPDEST DUP3 DUP2 DUP4 CALLDATACOPY PUSH1 0x0 DUP4 DUP4 ADD MSTORE POP POP POP JUMP JUMPDEST PUSH1 0x0 PUSH2 0x1865 PUSH2 0x1860 DUP5 PUSH2 0x1812 JUMP JUMPDEST PUSH2 0x17F7 JUMP JUMPDEST SWAP1 POP DUP3 DUP2 MSTORE PUSH1 0x20 DUP2 ADD DUP5 DUP5 DUP5 ADD GT ISZERO PUSH2 0x1881 JUMPI PUSH2 0x1880 PUSH2 0x1792 JUMP JUMPDEST JUMPDEST PUSH2 0x188C DUP5 DUP3 DUP6 PUSH2 0x1843 JUMP JUMPDEST POP SWAP4 SWAP3 POP POP POP JUMP JUMPDEST PUSH1 0x0 DUP3 PUSH1 0x1F DUP4 ADD SLT PUSH2 0x18A9 JUMPI PUSH2 0x18A8 PUSH2 0x178D JUMP JUMPDEST JUMPDEST DUP2 CALLDATALOAD PUSH2 0x18B9 DUP5 DUP3 PUSH1 0x20 DUP7 ADD PUSH2 0x1852 JUMP JUMPDEST SWAP2 POP POP SWAP3 SWAP2 POP POP JUMP JUMPDEST PUSH1 0x0 PUSH1 0x20 DUP3 DUP5 SUB SLT ISZERO PUSH2 0x18D8 JUMPI PUSH2 0x18D7 PUSH2 0x12FE JUMP JUMPDEST JUMPDEST PUSH1 0x0 DUP3 ADD CALLDATALOAD PUSH8 0xFFFFFFFFFFFFFFFF DUP2 GT ISZERO PUSH2 0x18F6 JUMPI PUSH2 0x18F5 PUSH2 0x1303 JUMP JUMPDEST JUMPDEST PUSH2 0x1902 DUP5 DUP3 DUP6 ADD PUSH2 0x1894 JUMP JUMPDEST SWAP2 POP POP SWAP3 SWAP2 POP POP JUMP JUMPDEST PUSH1 0x0 PUSH1 0x20 DUP3 ADD SWAP1 POP PUSH2 0x1920 PUSH1 0x0 DUP4 ADD DUP5 PUSH2 0x1665 JUMP JUMPDEST SWAP3 SWAP2 POP POP JUMP JUMPDEST PUSH1 0x0 PUSH1 0x20 DUP3 ADD SWAP1 POP DUP2 DUP2 SUB PUSH1 0x0 DUP4 ADD MSTORE PUSH2 0x1940 DUP2 DUP5 PUSH2 0x16E5 JUMP JUMPDEST SWAP1 POP SWAP3 SWAP2 POP POP JUMP JUMPDEST PUSH1 0x0 PUSH20 0xFFFFFFFFFFFFFFFFFFFFFFFFFFFFFFFFFFFFFFFF DUP3 AND SWAP1 POP SWAP2 SWAP1 POP JUMP JUMPDEST PUSH1 0x0 PUSH2 0x1973 DUP3 PUSH2 0x1948 JUMP JUMPDEST SWAP1 POP SWAP2 SWAP1 POP JUMP JUMPDEST PUSH2 0x1983 DUP2 PUSH2 0x1968 JUMP JUMPDEST DUP3 MSTORE POP POP JUMP JUMPDEST PUSH1 0x0 PUSH1 0x20 DUP3 ADD SWAP1 POP PUSH2 0x199E PUSH1 0x0 DUP4 ADD DUP5 PUSH2 0x197A JUMP JUMPDEST SWAP3 SWAP2 POP POP JUMP JUMPDEST PUSH1 0x0 DUP1 REVERT JUMPDEST PUSH1 0x0 DUP1 REVERT JUMPDEST PUSH1 0x0 DUP1 DUP4 PUSH1 0x1F DUP5 ADD SLT PUSH2 0x19C4 JUMPI PUSH2 0x19C3 PUSH2 0x178D JUMP JUMPDEST JUMPDEST DUP3 CALLDATALOAD SWAP1 POP PUSH8 0xFFFFFFFFFFFFFFFF DUP2 GT ISZERO PUSH2 0x19E1 JUMPI PUSH2 0x19E0 PUSH2 0x19A4 JUMP JUMPDEST JUMPDEST PUSH1 0x20 DUP4 ADD SWAP2 POP DUP4 PUSH1 0x1 DUP3 MUL DUP4 ADD GT ISZERO PUSH2 0x19FD JUMPI PUSH2 0x19FC PUSH2 0x19A9 JUMP JUMPDEST JUMPDEST SWAP3 POP SWAP3 SWAP1 POP JUMP JUMPDEST PUSH1 0x0 DUP1 PUSH1 0x0 PUSH1 0x40 DUP5 DUP7 SUB SLT ISZERO PUSH2 0x1A1D JUMPI PUSH2 0x1A1C PUSH2 0x12FE JUMP JUMPDEST JUMPDEST PUSH1 0x0 DUP5 ADD CALLDATALOAD PUSH8 0xFFFFFFFFFFFFFFFF DUP2 GT ISZERO PUSH2 0x1A3B JUMPI PUSH2 0x1A3A PUSH2 0x1303 JUMP JUMPDEST JUMPDEST PUSH2 0x1A47 DUP7 DUP3 DUP8 ADD PUSH2 0x19AE JUMP JUMPDEST SWAP4 POP SWAP4 POP POP PUSH1 0x20 PUSH2 0x1A5A DUP7 DUP3 DUP8 ADD PUSH2 0x1329 JUMP JUMPDEST SWAP2 POP POP SWAP3 POP SWAP3 POP SWAP3 JUMP JUMPDEST PUSH1 0x0 DUP2 MLOAD SWAP1 POP SWAP2 SWAP1 POP JUMP JUMPDEST PUSH1 0x0 DUP3 DUP3 MSTORE PUSH1 0x20 DUP3 ADD SWAP1 POP SWAP3 SWAP2 POP POP JUMP JUMPDEST PUSH1 0x0 DUP2 SWAP1 POP PUSH1 0x20 DUP3 ADD SWAP1 POP SWAP2 SWAP1 POP JUMP JUMPDEST PUSH1 0x0 PUSH2 0x1A9C DUP4 DUP4 PUSH2 0x14CE JUMP JUMPDEST SWAP1 POP SWAP3 SWAP2 POP POP JUMP JUMPDEST PUSH1 0x0 PUSH1 0x20 DUP3 ADD SWAP1 POP SWAP2 SWAP1 POP JUMP JUMPDEST PUSH1 0x0 PUSH2 0x1ABC DUP3 PUSH2 0x1A64 JUMP JUMPDEST PUSH2 0x1AC6 DUP2 DUP6 PUSH2 0x1A6F JUMP JUMPDEST SWAP4 POP DUP4 PUSH1 0x20 DUP3 MUL DUP6 ADD PUSH2 0x1AD8 DUP6 PUSH2 0x1A80 JUMP JUMPDEST DUP1 PUSH1 0x0 JUMPDEST DUP6 DUP2 LT ISZERO PUSH2 0x1B14 JUMPI DUP5 DUP5 SUB DUP10 MSTORE DUP2 MLOAD PUSH2 0x1AF5 DUP6 DUP3 PUSH2 0x1A90 JUMP JUMPDEST SWAP5 POP PUSH2 0x1B00 DUP4 PUSH2 0x1AA4 JUMP JUMPDEST SWAP3 POP PUSH1 0x20 DUP11 ADD SWAP10 POP POP PUSH1 0x1 DUP2 ADD SWAP1 POP PUSH2 0x1ADC JUMP JUMPDEST POP DUP3 SWAP8 POP DUP8 SWAP6 POP POP POP POP POP POP SWAP3 SWAP2 POP POP JUMP JUMPDEST PUSH1 0x0 PUSH1 0x20 DUP3 ADD SWAP1 POP DUP2 DUP2 SUB PUSH1 0x0 DUP4 ADD MSTORE PUSH2 0x1B40 DUP2 DUP5 PUSH2 0x1AB1 JUMP JUMPDEST SWAP1 POP SWAP3 SWAP2 POP POP JUMP JUMPDEST PUSH2 0x1B51 DUP2 PUSH2 0x1968 JUMP JUMPDEST DUP2 EQ PUSH2 0x1B5C JUMPI PUSH1 0x0 DUP1 REVERT JUMPDEST POP JUMP JUMPDEST PUSH1 0x0 DUP2 CALLDATALOAD SWAP1 POP PUSH2 0x1B6E DUP2 PUSH2 0x1B48 JUMP JUMPDEST SWAP3 SWAP2 POP POP JUMP JUMPDEST PUSH1 0x0 PUSH1 0x20 DUP3 DUP5 SUB SLT ISZERO PUSH2 0x1B8A JUMPI PUSH2 0x1B89 PUSH2 0x12FE JUMP JUMPDEST JUMPDEST PUSH1 0x0 PUSH2 0x1B98 DUP5 DUP3 DUP6 ADD PUSH2 0x1B5F JUMP JUMPDEST SWAP2 POP POP SWAP3 SWAP2 POP POP JUMP JUMPDEST PUSH32 0x566F74696E67206973207374696C6C2061637469766500000000000000000000 PUSH1 0x0 DUP3 ADD MSTORE POP JUMP JUMPDEST PUSH1 0x0 PUSH2 0x1BD7 PUSH1 0x16 DUP4 PUSH2 0x16D4 JUMP JUMPDEST SWAP2 POP PUSH2 0x1BE2 DUP3 PUSH2 0x1BA1 JUMP JUMPDEST PUSH1 0x20 DUP3 ADD SWAP1 POP SWAP2 SWAP1 POP JUMP JUMPDEST PUSH1 0x0 PUSH1 0x20 DUP3 ADD SWAP1 POP DUP2 DUP2 SUB PUSH1 0x0 DUP4 ADD MSTORE PUSH2 0x1C06 DUP2 PUSH2 0x1BCA JUMP JUMPDEST SWAP1 POP SWAP2 SWAP1 POP JUMP JUMPDEST PUSH32 0x496E76616C69642063616E646964617465204944000000000000000000000000 PUSH1 0x0 DUP3 ADD MSTORE POP JUMP JUMPDEST PUSH1 0x0 PUSH2 0x1C43 PUSH1 0x14 DUP4 PUSH2 0x16D4 JUMP JUMPDEST SWAP2 POP PUSH2 0x1C4E DUP3 PUSH2 0x1C0D JUMP JUMPDEST PUSH1 0x20 DUP3 ADD SWAP1 POP SWAP2 SWAP1 POP JUMP JUMPDEST PUSH1 0x0 PUSH1 0x20 DUP3 ADD SWAP1 POP DUP2 DUP2 SUB PUSH1 0x0 DUP4 ADD MSTORE PUSH2 0x1C72 DUP2 PUSH2 0x1C36 JUMP JUMPDEST SWAP1 POP SWAP2 SWAP1 POP JUMP JUMPDEST PUSH32 0x4E487B7100000000000000000000000000000000000000000000000000000000 PUSH1 0x0 MSTORE PUSH1 0x22 PUSH1 0x4 MSTORE PUSH1 0x24 PUSH1 0x0 REVERT JUMPDEST PUSH1 0x0 PUSH1 0x2 DUP3 DIV SWAP1 POP PUSH1 0x1 DUP3 AND DUP1 PUSH2 0x1CC0 JUMPI PUSH1 0x7F DUP3 AND SWAP2 POP JUMPDEST PUSH1 0x20 DUP3 LT DUP2 SUB PUSH2 0x1CD3 JUMPI PUSH2 0x1CD2 PUSH2 0x1C79 JUMP JUMPDEST JUMPDEST POP SWAP2 SWAP1 POP JUMP JUMPDEST PUSH32 0x566F74696E67206973206E6F7420616374697665000000000000000000000000 PUSH1 0x0 DUP3 ADD MSTORE POP JUMP JUMPDEST PUSH1 0x0 PUSH2 0x1D0F PUSH1 0x14 DUP4 PUSH2 0x16D4 JUMP JUMPDEST SWAP2 POP PUSH2 0x1D1A DUP3 PUSH2 0x1CD9 JUMP JUMPDEST PUSH1 0x20 DUP3 ADD SWAP1 POP SWAP2 SWAP1 POP JUMP JUMPDEST PUSH1 0x0 PUSH1 0x20 DUP3 ADD SWAP1 POP DUP2 DUP2 SUB PUSH1 0x0 DUP4 ADD MSTORE PUSH2 0x1D3E DUP2 PUSH2 0x1D02 JUMP JUMPDEST SWAP1 POP SWAP2 SWAP1 POP JUMP JUMPDEST PUSH32 0x566F74696E6720706572696F642068617320656E646564000000000000000000 PUSH1 0x0 DUP3 ADD MSTORE POP JUMP JUMPDEST PUSH1 0x0 PUSH2 0x1D7B PUSH1 0x17 DUP4 PUSH2 0x16D4 JUMP JUMPDEST SWAP2 POP PUSH2 0x1D86 DUP3 PUSH2 0x1D45 JUMP JUMPDEST PUSH1 0x20 DUP3 ADD SWAP1 POP SWAP2 SWAP1 POP JUMP JUMPDEST PUSH1 0x0 PUSH1 0x20 DUP3 ADD SWAP1 POP DUP2 DUP2 SUB PUSH1 0x0 DUP4 ADD MSTORE PUSH2 0x1DAA DUP2 PUSH2 0x1D6E JUMP JUMPDEST SWAP1 POP SWAP2 SWAP1 POP JUMP JUMPDEST PUSH1 0x0 DUP2 SWAP1 POP SWAP3 SWAP2 POP POP JUMP JUMPDEST PUSH1 0x0 PUSH2 0x1DC8 DUP4 DUP6 PUSH2 0x1DB1 JUMP JUMPDEST SWAP4 POP PUSH2 0x1DD5 DUP4 DUP6 DUP5 PUSH2 0x1843 JUMP JUMPDEST DUP3 DUP5 ADD SWAP1 POP SWAP4 SWAP3 POP POP POP JUMP JUMPDEST PUSH1 0x0 PUSH2 0x1DEE DUP3 DUP5 DUP7 PUSH2 0x1DBC JUMP JUMPDEST SWAP2 POP DUP2 SWAP1 POP SWAP4 SWAP3 POP POP POP JUMP JUMPDEST PUSH32 0x5468697320656D61696C2068617320616C726561647920766F74656400000000 PUSH1 0x0 DUP3 ADD MSTORE POP JUMP JUMPDEST PUSH1 0x0 PUSH2 0x1E30 PUSH1 0x1C DUP4 PUSH2 0x16D4 JUMP JUMPDEST SWAP2 POP PUSH2 0x1E3B DUP3 PUSH2 0x1DFA JUMP JUMPDEST PUSH1 0x20 DUP3 ADD SWAP1 POP SWAP2 SWAP1 POP JUMP JUMPDEST PUSH1 0x0 PUSH1 0x20 DUP3 ADD SWAP1 POP DUP2 DUP2 SUB PUSH1 0x0 DUP4 ADD MSTORE PUSH2 0x1E5F DUP2 PUSH2 0x1E23 JUMP JUMPDEST SWAP1 POP SWAP2 SWAP1 POP JUMP JUMPDEST PUSH1 0x0 DUP3 SWAP1 POP SWAP3 SWAP2 POP POP JUMP JUMPDEST PUSH1 0x0 DUP2 SWAP1 POP DUP2 PUSH1 0x0 MSTORE PUSH1 0x20 PUSH1 0x0 KECCAK256 SWAP1 POP SWAP2 SWAP1 POP JUMP JUMPDEST PUSH1 0x0 PUSH1 0x20 PUSH1 0x1F DUP4 ADD DIV SWAP1 POP SWAP2 SWAP1 POP JUMP JUMPDEST PUSH1 0x0 DUP3 DUP3 SHL SWAP1 POP SWAP3 SWAP2 POP POP JUMP JUMPDEST PUSH1 0x0 PUSH1 0x8 DUP4 MUL PUSH2 0x1ED3 PUSH32 0xFFFFFFFFFFFFFFFFFFFFFFFFFFFFFFFFFFFFFFFFFFFFFFFFFFFFFFFFFFFFFFFF DUP3 PUSH2 0x1E96 JUMP JUMPDEST PUSH2 0x1EDD DUP7 DUP4 PUSH2 0x1E96 JUMP JUMPDEST SWAP6 POP DUP1 NOT DUP5 AND SWAP4 POP DUP1 DUP7 AND DUP5 OR SWAP3 POP POP POP SWAP4 SWAP3 POP POP POP JUMP JUMPDEST PUSH1 0x0 DUP2 SWAP1 POP SWAP2 SWAP1 POP JUMP JUMPDEST PUSH1 0x0 PUSH2 0x1F1A PUSH2 0x1F15 PUSH2 0x1F10 DUP5 PUSH2 0x1308 JUMP JUMPDEST PUSH2 0x1EF5 JUMP JUMPDEST PUSH2 0x1308 JUMP JUMPDEST SWAP1 POP SWAP2 SWAP1 POP JUMP JUMPDEST PUSH1 0x0 DUP2 SWAP1 POP SWAP2 SWAP1 POP JUMP JUMPDEST PUSH2 0x1F34 DUP4 PUSH2 0x1EFF JUMP JUMPDEST PUSH2 0x1F48 PUSH2 0x1F40 DUP3 PUSH2 0x1F21 JUMP JUMPDEST DUP5 DUP5 SLOAD PUSH2 0x1EA3 JUMP JUMPDEST DUP3 SSTORE POP POP POP POP JUMP JUMPDEST PUSH1 0x0 SWAP1 JUMP JUMPDEST PUSH2 0x1F5D PUSH2 0x1F50 JUMP JUMPDEST PUSH2 0x1F68 DUP2 DUP5 DUP5 PUSH2 0x1F2B JUMP JUMPDEST POP POP POP JUMP JUMPDEST JUMPDEST DUP2 DUP2 LT ISZERO PUSH2 0x1F8C JUMPI PUSH2 0x1F81 PUSH1 0x0 DUP3 PUSH2 0x1F55 JUMP JUMPDEST PUSH1 0x1 DUP2 ADD SWAP1 POP PUSH2 0x1F6E JUMP JUMPDEST POP POP JUMP JUMPDEST PUSH1 0x1F DUP3 GT ISZERO PUSH2 0x1FD1 JUMPI PUSH2 0x1FA2 DUP2 PUSH2 0x1E71 JUMP JUMPDEST PUSH2 0x1FAB DUP5 PUSH2 0x1E86 JUMP JUMPDEST DUP2 ADD PUSH1 0x20 DUP6 LT ISZERO PUSH2 0x1FBA JUMPI DUP2 SWAP1 POP JUMPDEST PUSH2 0x1FCE PUSH2 0x1FC6 DUP6 PUSH2 0x1E86 JUMP JUMPDEST DUP4 ADD DUP3 PUSH2 0x1F6D JUMP JUMPDEST POP POP JUMPDEST POP POP POP JUMP JUMPDEST PUSH1 0x0 DUP3 DUP3 SHR SWAP1 POP SWAP3 SWAP2 POP POP JUMP JUMPDEST PUSH1 0x0 PUSH2 0x1FF4 PUSH1 0x0 NOT DUP5 PUSH1 0x8 MUL PUSH2 0x1FD6 JUMP JUMPDEST NOT DUP1 DUP4 AND SWAP2 POP POP SWAP3 SWAP2 POP POP JUMP JUMPDEST PUSH1 0x0 PUSH2 0x200D DUP4 DUP4 PUSH2 0x1FE3 JUMP JUMPDEST SWAP2 POP DUP3 PUSH1 0x2 MUL DUP3 OR SWAP1 POP SWAP3 SWAP2 POP POP JUMP JUMPDEST PUSH2 0x2027 DUP4 DUP4 PUSH2 0x1E66 JUMP JUMPDEST PUSH8 0xFFFFFFFFFFFFFFFF DUP2 GT ISZERO PUSH2 0x2040 JUMPI PUSH2 0x203F PUSH2 0x1797 JUMP JUMPDEST JUMPDEST PUSH2 0x204A DUP3 SLOAD PUSH2 0x1CA8 JUMP JUMPDEST PUSH2 0x2055 DUP3 DUP3 DUP6 PUSH2 0x1F90 JUMP JUMPDEST PUSH1 0x0 PUSH1 0x1F DUP4 GT PUSH1 0x1 DUP2 EQ PUSH2 0x2084 JUMPI PUSH1 0x0 DUP5 ISZERO PUSH2 0x2072 JUMPI DUP3 DUP8 ADD CALLDATALOAD SWAP1 POP JUMPDEST PUSH2 0x207C DUP6 DUP3 PUSH2 0x2001 JUMP JUMPDEST DUP7 SSTORE POP PUSH2 0x20E4 JUMP JUMPDEST PUSH1 0x1F NOT DUP5 AND PUSH2 0x2092 DUP7 PUSH2 0x1E71 JUMP JUMPDEST PUSH1 0x0 JUMPDEST DUP3 DUP2 LT ISZERO PUSH2 0x20BA JUMPI DUP5 DUP10 ADD CALLDATALOAD DUP3 SSTORE PUSH1 0x1 DUP3 ADD SWAP2 POP PUSH1 0x20 DUP6 ADD SWAP5 POP PUSH1 0x20 DUP2 ADD SWAP1 POP PUSH2 0x2095 JUMP JUMPDEST DUP7 DUP4 LT ISZERO PUSH2 0x20D7 JUMPI DUP5 DUP10 ADD CALLDATALOAD PUSH2 0x20D3 PUSH1 0x1F DUP10 AND DUP3 PUSH2 0x1FE3 JUMP JUMPDEST DUP4 SSTORE POP JUMPDEST PUSH1 0x1 PUSH1 0x2 DUP9 MUL ADD DUP9 SSTORE POP POP POP JUMPDEST POP POP POP POP POP POP POP JUMP JUMPDEST PUSH32 0x4E487B7100000000000000000000000000000000000000000000000000000000 PUSH1 0x0 MSTORE PUSH1 0x11 PUSH1 0x4 MSTORE PUSH1 0x24 PUSH1 0x0 REVERT JUMPDEST PUSH1 0x0 PUSH2 0x2127 DUP3 PUSH2 0x1308 JUMP JUMPDEST SWAP2 POP PUSH32 0xFFFFFFFFFFFFFFFFFFFFFFFFFFFFFFFFFFFFFFFFFFFFFFFFFFFFFFFFFFFFFFFF DUP3 SUB PUSH2 0x2159 JUMPI PUSH2 0x2158 PUSH2 0x20ED JUMP JUMPDEST JUMPDEST PUSH1 0x1 DUP3 ADD SWAP1 POP SWAP2 SWAP1 POP JUMP JUMPDEST PUSH1 0x0 PUSH2 0x216F DUP3 PUSH2 0x1308 JUMP JUMPDEST SWAP2 POP PUSH2 0x217A DUP4 PUSH2 0x1308 JUMP JUMPDEST SWAP3 POP DUP3 DUP3 SUB SWAP1 POP DUP2 DUP2 GT ISZERO PUSH2 0x2192 JUMPI PUSH2 0x2191 PUSH2 0x20ED JUMP JUMPDEST JUMPDEST SWAP3 SWAP2 POP POP JUMP JUMPDEST PUSH1 0x0 DUP2 SWAP1 POP SWAP2 SWAP1 POP JUMP JUMPDEST PUSH2 0x21B3 PUSH2 0x21AE DUP3 PUSH2 0x1308 JUMP JUMPDEST PUSH2 0x2198 JUMP JUMPDEST DUP3 MSTORE POP POP JUMP JUMPDEST PUSH1 0x0 DUP2 PUSH1 0x60 SHL SWAP1 POP SWAP2 SWAP1 POP JUMP JUMPDEST PUSH1 0x0 PUSH2 0x21D1 DUP3 PUSH2 0x21B9 JUMP JUMPDEST SWAP1 POP SWAP2 SWAP1 POP JUMP JUMPDEST PUSH1 0x0 PUSH2 0x21E3 DUP3 PUSH2 0x21C6 JUMP JUMPDEST SWAP1 POP SWAP2 SWAP1 POP JUMP JUMPDEST PUSH2 0x21FB PUSH2 0x21F6 DUP3 PUSH2 0x1968 JUMP JUMPDEST PUSH2 0x21D8 JUMP JUMPDEST DUP3 MSTORE POP POP JUMP JUMPDEST PUSH1 0x0 PUSH2 0x220D DUP3 DUP8 PUSH2 0x21A2 JUMP JUMPDEST PUSH1 0x20 DUP3 ADD SWAP2 POP PUSH2 0x221D DUP3 DUP7 PUSH2 0x21A2 JUMP JUMPDEST PUSH1 0x20 DUP3 ADD SWAP2 POP PUSH2 0x222D DUP3 DUP6 PUSH2 0x21EA JUMP JUMPDEST PUSH1 0x14 DUP3 ADD SWAP2 POP PUSH2 0x223D DUP3 DUP5 PUSH2 0x21A2 JUMP JUMPDEST PUSH1 0x20 DUP3 ADD SWAP2 POP DUP2 SWAP1 POP SWAP6 SWAP5 POP POP POP POP POP JUMP JUMPDEST PUSH32 0x4E487B7100000000000000000000000000000000000000000000000000000000 PUSH1 0x0 MSTORE PUSH1 0x12 PUSH1 0x4 MSTORE PUSH1 0x24 PUSH1 0x0 REVERT JUMPDEST PUSH1 0x0 PUSH2 0x2289 DUP3 PUSH2 0x1308 JUMP JUMPDEST SWAP2 POP PUSH2 0x2294 DUP4 PUSH2 0x1308 JUMP JUMPDEST SWAP3 POP DUP3 PUSH2 0x22A4 JUMPI PUSH2 0x22A3 PUSH2 0x224F JUMP JUMPDEST JUMPDEST DUP3 DUP3 MOD SWAP1 POP SWAP3 SWAP2 POP POP JUMP JUMPDEST PUSH1 0x0 PUSH2 0x22BA DUP3 PUSH2 0x1308 JUMP JUMPDEST SWAP2 POP PUSH2 0x22C5 DUP4 PUSH2 0x1308 JUMP JUMPDEST SWAP3 POP DUP3 DUP3 ADD SWAP1 POP DUP1 DUP3 GT ISZERO PUSH2 0x22DD JUMPI PUSH2 0x22DC PUSH2 0x20ED JUMP JUMPDEST JUMPDEST SWAP3 SWAP2 POP POP JUMP INVALID LOG2 PUSH5 0x6970667358 0x22 SLT KECCAK256 PUSH14 0x9C1F17C36193B1F12804A0BBE9DB 0xC1 CHAINID 0x5E MOD 0x2D 0x29 PUSH16 0x5AFC3EC663C80EF178D64736F6C6343 STOP ADDMOD EQ STOP CALLER "},"methodIdentifiers":{"candidates(uint256)":"3477ee2e","castVote(string,uint256)":"e3b9e2fa","endVoting()":"c3403ddf","getAllVoterEmails()":"eed62371","getCandidateCount()":"30a56347","getCandidateUniqueNumbers(uint256)":"0469a10e","getCandidateVotes(uint256)":"866163c0","getCandidates()":"06a49fce","getRemainingTime()":"efb98bcf","hasVoted(string)":"39bfeae3","isVotingActive()":"47cf6f76","owner()":"8da5cb5b","renounceOwnership()":"715018a6","transferOwnership(address)":"f2fde38b","validCandidateIds(uint256)":"940662d9","voterEmails(uint256)":"881687d5","votingInfo()":"19e7998c"}}}}}