{
  "_format": "hh-sol-artifact-1",
  "contractName": "EVoting",
  "sourceName": "contracts/EVoting.sol",
  "abi": [
    {
      "inputs": [
        {
          "internalType": "uint256",
          "name": "durationInMinutes",
          "type": "uint256"
        },
        {
          "internalType": "uint256[]",
          "name": "candidateIds",
          "type": "uint256[]"
        },
        {
          "internalType": "string[]",
          "name": "names",
          "type": "string[]"
        },
        {
          "internalType": "string[]",
          "name": "positions",
          "type": "string[]"
        },
        {
          "internalType": "string[]",
          "name": "departments",
          "type": "string[]"
        },
        {
          "internalType": "string[]",
          "name": "academicYears",
          "type": "string[]"
        }
      ],
      "stateMutability": "nonpayable",
      "type": "constructor"
    },
    {
      "inputs": [
        {
          "internalType": "address",
          "name": "owner",
          "type": "address"
        }
      ],
      "name": "OwnableInvalidOwner",
      "type": "error"
    },
    {
      "inputs": [
        {
          "internalType": "address",
          "name": "account",
          "type": "address"
        }
      ],
      "name": "OwnableUnauthorizedAccount",
      "type": "error"
    },
    {
      "anonymous": false,
      "inputs": [
        {
          "indexed": false,
          "internalType": "uint256",
          "name": "id",
          "type": "uint256"
        },
        {
          "indexed": false,
          "internalType": "string",
          "name": "name",
          "type": "string"
        }
      ],
      "name": "CandidateAdded",
      "type": "event"
    },
    {
      "anonymous": false,
      "inputs": [
        {
          "indexed": true,
          "internalType": "address",
          "name": "previousOwner",
          "type": "address"
        },
        {
          "indexed": true,
          "internalType": "address",
          "name": "newOwner",
          "type": "address"
        }
      ],
      "name": "OwnershipTransferred",
      "type": "event"
    },
    {
      "anonymous": false,
      "inputs": [
        {
          "indexed": false,
          "internalType": "uint256",
          "name": "uniqueNumber",
          "type": "uint256"
        }
      ],
      "name": "VoteCasted",
      "type": "event"
    },
    {
      "anonymous": false,
      "inputs": [],
      "name": "VotingEnded",
      "type": "event"
    },
    {
      "anonymous": false,
      "inputs": [
        {
          "indexed": false,
          "internalType": "uint256",
          "name": "startTime",
          "type": "uint256"
        },
        {
          "indexed": false,
          "internalType": "uint256",
          "name": "endTime",
          "type": "uint256"
        }
      ],
      "name": "VotingStarted",
      "type": "event"
    },
    {
      "inputs": [
        {
          "internalType": "uint256",
          "name": "",
          "type": "uint256"
        }
      ],
      "name": "candidates",
      "outputs": [
        {
          "internalType": "uint256",
          "name": "id",
          "type": "uint256"
        },
        {
          "internalType": "string",
          "name": "name",
          "type": "string"
        },
        {
          "internalType": "string",
          "name": "position",
          "type": "string"
        },
        {
          "internalType": "string",
          "name": "department",
          "type": "string"
        },
        {
          "internalType": "string",
          "name": "year",
          "type": "string"
        }
      ],
      "stateMutability": "view",
      "type": "function"
    },
    {
      "inputs": [
        {
          "internalType": "string",
          "name": "email",
          "type": "string"
        },
        {
          "internalType": "uint256",
          "name": "candidateId",
          "type": "uint256"
        }
      ],
      "name": "castVote",
      "outputs": [],
      "stateMutability": "nonpayable",
      "type": "function"
    },
    {
      "inputs": [],
      "name": "endVoting",
      "outputs": [],
      "stateMutability": "nonpayable",
      "type": "function"
    },
    {
      "inputs": [],
      "name": "getAllVoterEmails",
      "outputs": [
        {
          "internalType": "string[]",
          "name": "",
          "type": "string[]"
        }
      ],
      "stateMutability": "view",
      "type": "function"
    },
    {
      "inputs": [],
      "name": "getCandidateCount",
      "outputs": [
        {
          "internalType": "uint256",
          "name": "",
          "type": "uint256"
        }
      ],
      "stateMutability": "view",
      "type": "function"
    },
    {
      "inputs": [
        {
          "internalType": "uint256",
          "name": "candidateId",
          "type": "uint256"
        }
      ],
      "name": "getCandidateUniqueNumbers",
      "outputs": [
        {
          "internalType": "uint256[]",
          "name": "",
          "type": "uint256[]"
        }
      ],
      "stateMutability": "view",
      "type": "function"
    },
    {
      "inputs": [
        {
          "internalType": "uint256",
          "name": "candidateId",
          "type": "uint256"
        }
      ],
      "name": "getCandidateVotes",
      "outputs": [
        {
          "internalType": "uint256",
          "name": "",
          "type": "uint256"
        }
      ],
      "stateMutability": "view",
      "type": "function"
    },
    {
      "inputs": [],
      "name": "getCandidates",
      "outputs": [
        {
          "components": [
            {
              "internalType": "uint256",
              "name": "id",
              "type": "uint256"
            },
            {
              "internalType": "string",
              "name": "name",
              "type": "string"
            },
            {
              "internalType": "string",
              "name": "position",
              "type": "string"
            },
            {
              "internalType": "string",
              "name": "department",
              "type": "string"
            },
            {
              "internalType": "string",
              "name": "year",
              "type": "string"
            }
          ],
          "internalType": "struct EVoting.Candidate[]",
          "name": "",
          "type": "tuple[]"
        }
      ],
      "stateMutability": "view",
      "type": "function"
    },
    {
      "inputs": [],
      "name": "getRemainingTime",
      "outputs": [
        {
          "internalType": "uint256",
          "name": "",
          "type": "uint256"
        }
      ],
      "stateMutability": "view",
      "type": "function"
    },
    {
      "inputs": [
        {
          "internalType": "string",
          "name": "",
          "type": "string"
        }
      ],
      "name": "hasVoted",
      "outputs": [
        {
          "internalType": "bool",
          "name": "",
          "type": "bool"
        }
      ],
      "stateMutability": "view",
      "type": "function"
    },
    {
      "inputs": [],
      "name": "isVotingActive",
      "outputs": [
        {
          "internalType": "bool",
          "name": "",
          "type": "bool"
        }
      ],
      "stateMutability": "view",
      "type": "function"
    },
    {
      "inputs": [],
      "name": "owner",
      "outputs": [
        {
          "internalType": "address",
          "name": "",
          "type": "address"
        }
      ],
      "stateMutability": "view",
      "type": "function"
    },
    {
      "inputs": [],
      "name": "renounceOwnership",
      "outputs": [],
      "stateMutability": "nonpayable",
      "type": "function"
    },
    {
      "inputs": [
        {
          "internalType": "address",
          "name": "newOwner",
          "type": "address"
        }
      ],
      "name": "transferOwnership",
      "outputs": [],
      "stateMutability": "nonpayable",
      "type": "function"
    },
    {
      "inputs": [
        {
          "internalType": "uint256",
          "name": "",
          "type": "uint256"
        }
      ],
      "name": "validCandidateIds",
      "outputs": [
        {
          "internalType": "bool",
          "name": "",
          "type": "bool"
        }
      ],
      "stateMutability": "view",
      "type": "function"
    },
    {
      "inputs": [
        {
          "internalType": "uint256",
          "name": "",
          "type": "uint256"
        }
      ],
      "name": "voterEmails",
      "outputs": [
        {
          "internalType": "string",
          "name": "",
          "type": "string"
        }
      ],
      "stateMutability": "view",
      "type": "function"
    },
    {
      "inputs": [],
      "name": "votingInfo",
      "outputs": [
        {
          "internalType": "uint256",
          "name": "startTime",
          "type": "uint256"
        },
        {
          "internalType": "uint256",
          "name": "endTime",
          "type": "uint256"
        },
        {
          "internalType": "bool",
          "name": "isActive",
          "type": "bool"
        },
        {
          "internalType": "uint256",
          "name": "totalVotes",
          "type": "uint256"
        }
      ],
      "stateMutability": "view",
      "type": "function"
    }
  ],
  "bytecode": "0x60806040523480156200001157600080fd5b506040516200325b3803806200325b83398181016040528101906200003791906200086b565b33600073ffffffffffffffffffffffffffffffffffffffff168173ffffffffffffffffffffffffffffffffffffffff1603620000ad5760006040517f1e4fbdf7000000000000000000000000000000000000000000000000000000008152600401620000a49190620009e7565b60405180910390fd5b620000be816200040760201b60201c565b5083518551148015620000d2575082518451145b8015620000e0575081518351145b8015620000ee575080518251145b62000130576040517f08c379a0000000000000000000000000000000000000000000000000000000008152600401620001279062000a65565b60405180910390fd5b42600160000181905550603c8662000149919062000ab6565b4262000156919062000b01565b600180018190555060018060020160006101000a81548160ff021916908315150217905550600060016003018190555060005b8551811015620003b65760086040518060a00160405280888481518110620001b657620001b562000b3c565b5b60200260200101518152602001878481518110620001d957620001d862000b3c565b5b60200260200101518152602001868481518110620001fc57620001fb62000b3c565b5b602002602001015181526020018584815181106200021f576200021e62000b3c565b5b6020026020010151815260200184848151811062000242576200024162000b3c565b5b6020026020010151815250908060018154018082558091505060019003906000526020600020906005020160009091909190915060008201518160000155602082015181600101908162000297919062000dac565b506040820151816002019081620002af919062000dac565b506060820151816003019081620002c7919062000dac565b506080820151816004019081620002df919062000dac565b505050600160096000888481518110620002fe57620002fd62000b3c565b5b6020026020010151815260200190815260200160002060006101000a81548160ff0219169083151502179055507fe83b2a43e7e82d975c8a0a6d2f045153c869e111136a34d1889ab7b598e396a386828151811062000362576200036162000b3c565b5b602002602001015186838151811062000380576200037f62000b3c565b5b60200260200101516040516200039892919062000ee5565b60405180910390a18080620003ad9062000f19565b91505062000189565b507ff8c022056754dbacca05aff710dc315a2fa7699ae9309fda403cd1e55c11d40f6001600001546001800154604051620003f392919062000f66565b60405180910390a150505050505062000f93565b60008060009054906101000a900473ffffffffffffffffffffffffffffffffffffffff169050816000806101000a81548173ffffffffffffffffffffffffffffffffffffffff021916908373ffffffffffffffffffffffffffffffffffffffff1602179055508173ffffffffffffffffffffffffffffffffffffffff168173ffffffffffffffffffffffffffffffffffffffff167f8be0079c531659141344cd1fd0a4f28419497f9722a3daafe3b4186f6b6457e060405160405180910390a35050565b6000604051905090565b600080fd5b600080fd5b6000819050919050565b620004f481620004df565b81146200050057600080fd5b50565b6000815190506200051481620004e9565b92915050565b600080fd5b6000601f19601f8301169050919050565b7f4e487b7100000000000000000000000000000000000000000000000000000000600052604160045260246000fd5b6200056a826200051f565b810181811067ffffffffffffffff821117156200058c576200058b62000530565b5b80604052505050565b6000620005a1620004cb565b9050620005af82826200055f565b919050565b600067ffffffffffffffff821115620005d257620005d162000530565b5b602082029050602081019050919050565b600080fd5b6000620005ff620005f984620005b4565b62000595565b90508083825260208201905060208402830185811115620006255762000624620005e3565b5b835b818110156200065257806200063d888262000503565b84526020840193505060208101905062000627565b5050509392505050565b600082601f8301126200067457620006736200051a565b5b815162000686848260208601620005e8565b91505092915050565b600067ffffffffffffffff821115620006ad57620006ac62000530565b5b602082029050602081019050919050565b600080fd5b600067ffffffffffffffff821115620006e157620006e062000530565b5b620006ec826200051f565b9050602081019050919050565b60005b8381101562000719578082015181840152602081019050620006fc565b60008484015250505050565b60006200073c6200073684620006c3565b62000595565b9050828152602081018484840111156200075b576200075a620006be565b5b62000768848285620006f9565b509392505050565b600082601f8301126200078857620007876200051a565b5b81516200079a84826020860162000725565b91505092915050565b6000620007ba620007b4846200068f565b62000595565b90508083825260208201905060208402830185811115620007e057620007df620005e3565b5b835b818110156200082e57805167ffffffffffffffff8111156200080957620008086200051a565b5b80860162000818898262000770565b85526020850194505050602081019050620007e2565b5050509392505050565b600082601f83011262000850576200084f6200051a565b5b815162000862848260208601620007a3565b91505092915050565b60008060008060008060c087890312156200088b576200088a620004d5565b5b60006200089b89828a0162000503565b965050602087015167ffffffffffffffff811115620008bf57620008be620004da565b5b620008cd89828a016200065c565b955050604087015167ffffffffffffffff811115620008f157620008f0620004da565b5b620008ff89828a0162000838565b945050606087015167ffffffffffffffff811115620009235762000922620004da565b5b6200093189828a0162000838565b935050608087015167ffffffffffffffff811115620009555762000954620004da565b5b6200096389828a0162000838565b92505060a087015167ffffffffffffffff811115620009875762000986620004da565b5b6200099589828a0162000838565b9150509295509295509295565b600073ffffffffffffffffffffffffffffffffffffffff82169050919050565b6000620009cf82620009a2565b9050919050565b620009e181620009c2565b82525050565b6000602082019050620009fe6000830184620009d6565b92915050565b600082825260208201905092915050565b7f417272617973206c656e677468206d69736d6174636800000000000000000000600082015250565b600062000a4d60168362000a04565b915062000a5a8262000a15565b602082019050919050565b6000602082019050818103600083015262000a808162000a3e565b9050919050565b7f4e487b7100000000000000000000000000000000000000000000000000000000600052601160045260246000fd5b600062000ac382620004df565b915062000ad083620004df565b925082820262000ae081620004df565b9150828204841483151762000afa5762000af962000a87565b5b5092915050565b600062000b0e82620004df565b915062000b1b83620004df565b925082820190508082111562000b365762000b3562000a87565b5b92915050565b7f4e487b7100000000000000000000000000000000000000000000000000000000600052603260045260246000fd5b600081519050919050565b7f4e487b7100000000000000000000000000000000000000000000000000000000600052602260045260246000fd5b6000600282049050600182168062000bbe57607f821691505b60208210810362000bd45762000bd362000b76565b5b50919050565b60008190508160005260206000209050919050565b60006020601f8301049050919050565b600082821b905092915050565b60006008830262000c3e7fffffffffffffffffffffffffffffffffffffffffffffffffffffffffffffffff8262000bff565b62000c4a868362000bff565b95508019841693508086168417925050509392505050565b6000819050919050565b600062000c8d62000c8762000c8184620004df565b62000c62565b620004df565b9050919050565b6000819050919050565b62000ca98362000c6c565b62000cc162000cb88262000c94565b84845462000c0c565b825550505050565b600090565b62000cd862000cc9565b62000ce581848462000c9e565b505050565b5b8181101562000d0d5762000d0160008262000cce565b60018101905062000ceb565b5050565b601f82111562000d5c5762000d268162000bda565b62000d318462000bef565b8101602085101562000d41578190505b62000d5962000d508562000bef565b83018262000cea565b50505b505050565b600082821c905092915050565b600062000d816000198460080262000d61565b1980831691505092915050565b600062000d9c838362000d6e565b9150826002028217905092915050565b62000db78262000b6b565b67ffffffffffffffff81111562000dd35762000dd262000530565b5b62000ddf825462000ba5565b62000dec82828562000d11565b600060209050601f83116001811462000e24576000841562000e0f578287015190505b62000e1b858262000d8e565b86555062000e8b565b601f19841662000e348662000bda565b60005b8281101562000e5e5784890151825560018201915060208501945060208101905062000e37565b8683101562000e7e578489015162000e7a601f89168262000d6e565b8355505b6001600288020188555050505b505050505050565b62000e9e81620004df565b82525050565b600062000eb18262000b6b565b62000ebd818562000a04565b935062000ecf818560208601620006f9565b62000eda816200051f565b840191505092915050565b600060408201905062000efc600083018562000e93565b818103602083015262000f10818462000ea4565b90509392505050565b600062000f2682620004df565b91507fffffffffffffffffffffffffffffffffffffffffffffffffffffffffffffffff820362000f5b5762000f5a62000a87565b5b600182019050919050565b600060408201905062000f7d600083018562000e93565b62000f8c602083018462000e93565b9392505050565b6122b88062000fa36000396000f3fe608060405234801561001057600080fd5b506004361061010b5760003560e01c8063866163c0116100a2578063c3403ddf11610071578063c3403ddf146102d7578063e3b9e2fa146102e1578063eed62371146102fd578063efb98bcf1461031b578063f2fde38b146103395761010b565b8063866163c014610229578063881687d5146102595780638da5cb5b14610289578063940662d9146102a75761010b565b80633477ee2e116100de5780633477ee2e1461019d57806339bfeae3146101d157806347cf6f7614610201578063715018a61461021f5761010b565b80630469a10e1461011057806306a49fce1461014057806319e7998c1461015e57806330a563471461017f575b600080fd5b61012a600480360381019061012591906112dd565b610355565b60405161013791906113c8565b60405180910390f35b610148610481565b60405161015591906115c7565b60405180910390f35b610166610732565b6040516101769493929190611613565b60405180910390f35b61018761075d565b6040516101949190611658565b60405180910390f35b6101b760048036038101906101b291906112dd565b61076a565b6040516101c89594939291906116bd565b60405180910390f35b6101eb60048036038101906101e69190611861565b6109d0565b6040516101f891906118aa565b60405180910390f35b610209610a06565b60405161021691906118aa565b60405180910390f35b610227610a30565b005b610243600480360381019061023e91906112dd565b610a44565b6040516102509190611658565b60405180910390f35b610273600480360381019061026e91906112dd565b610b25565b60405161028091906118c5565b60405180910390f35b610291610bd1565b60405161029e9190611928565b60405180910390f35b6102c160048036038101906102bc91906112dd565b610bfa565b6040516102ce91906118aa565b60405180910390f35b6102df610c1a565b005b6102fb60048036038101906102f691906119a3565b610cc0565b005b610305610f3c565b6040516103129190611ac5565b60405180910390f35b610323611015565b6040516103309190611658565b60405180910390f35b610353600480360381019061034e9190611b13565b61105e565b005b6060600160020160009054906101000a900460ff1615806103795750600180015442115b6103b8576040517f08c379a00000000000000000000000000000000000000000000000000000000081526004016103af90611b8c565b60405180910390fd5b6009600083815260200190815260200160002060009054906101000a900460ff16610418576040517f08c379a000000000000000000000000000000000000000000000000000000000815260040161040f90611bf8565b60405180910390fd5b6006600083815260200190815260200160002080548060200260200160405190810160405280929190818152602001828054801561047557602002820191906000526020600020905b815481526020019060010190808311610461575b50505050509050919050565b60606008805480602002602001604051908101604052809291908181526020016000905b8282101561072957838290600052602060002090600502016040518060a0016040529081600082015481526020016001820180546104e290611c47565b80601f016020809104026020016040519081016040528092919081815260200182805461050e90611c47565b801561055b5780601f106105305761010080835404028352916020019161055b565b820191906000526020600020905b81548152906001019060200180831161053e57829003601f168201915b5050505050815260200160028201805461057490611c47565b80601f01602080910402602001604051908101604052809291908181526020018280546105a090611c47565b80156105ed5780601f106105c2576101008083540402835291602001916105ed565b820191906000526020600020905b8154815290600101906020018083116105d057829003601f168201915b5050505050815260200160038201805461060690611c47565b80601f016020809104026020016040519081016040528092919081815260200182805461063290611c47565b801561067f5780601f106106545761010080835404028352916020019161067f565b820191906000526020600020905b81548152906001019060200180831161066257829003601f168201915b5050505050815260200160048201805461069890611c47565b80601f01602080910402602001604051908101604052809291908181526020018280546106c490611c47565b80156107115780601f106106e657610100808354040283529160200191610711565b820191906000526020600020905b8154815290600101906020018083116106f457829003601f168201915b505050505081525050815260200190600101906104a5565b50505050905090565b60018060000154908060010154908060020160009054906101000a900460ff16908060030154905084565b6000600880549050905090565b6008818154811061077a57600080fd5b90600052602060002090600502016000915090508060000154908060010180546107a390611c47565b80601f01602080910402602001604051908101604052809291908181526020018280546107cf90611c47565b801561081c5780601f106107f15761010080835404028352916020019161081c565b820191906000526020600020905b8154815290600101906020018083116107ff57829003601f168201915b50505050509080600201805461083190611c47565b80601f016020809104026020016040519081016040528092919081815260200182805461085d90611c47565b80156108aa5780601f1061087f576101008083540402835291602001916108aa565b820191906000526020600020905b81548152906001019060200180831161088d57829003601f168201915b5050505050908060030180546108bf90611c47565b80601f01602080910402602001604051908101604052809291908181526020018280546108eb90611c47565b80156109385780601f1061090d57610100808354040283529160200191610938565b820191906000526020600020905b81548152906001019060200180831161091b57829003601f168201915b50505050509080600401805461094d90611c47565b80601f016020809104026020016040519081016040528092919081815260200182805461097990611c47565b80156109c65780601f1061099b576101008083540402835291602001916109c6565b820191906000526020600020905b8154815290600101906020018083116109a957829003601f168201915b5050505050905085565b6005818051602081018201805184825260208301602085012081835280955050505050506000915054906101000a900460ff1681565b6000600160020160009054906101000a900460ff168015610a2b575060018001544211155b905090565b610a386110e4565b610a42600061116b565b565b6000600160020160009054906101000a900460ff161580610a685750600180015442115b610aa7576040517f08c379a0000000000000000000000000000000000000000000000000000000008152600401610a9e90611b8c565b60405180910390fd5b6009600083815260200190815260200160002060009054906101000a900460ff16610b07576040517f08c379a0000000000000000000000000000000000000000000000000000000008152600401610afe90611bf8565b60405180910390fd5b60066000838152602001908152602001600020805490509050919050565b60078181548110610b3557600080fd5b906000526020600020016000915090508054610b5090611c47565b80601f0160208091040260200160405190810160405280929190818152602001828054610b7c90611c47565b8015610bc95780601f10610b9e57610100808354040283529160200191610bc9565b820191906000526020600020905b815481529060010190602001808311610bac57829003601f168201915b505050505081565b60008060009054906101000a900473ffffffffffffffffffffffffffffffffffffffff16905090565b60096020528060005260406000206000915054906101000a900460ff1681565b610c226110e4565b600160020160009054906101000a900460ff16610c74576040517f08c379a0000000000000000000000000000000000000000000000000000000008152600401610c6b90611cc4565b60405180910390fd5b6000600160020160006101000a81548160ff0219169083151502179055507f7a19ed057db79e3c2fa0b97a54b43bef4fce74b31bb6c01af514b9a18a7f70ab60405160405180910390a1565b600160020160009054906101000a900460ff16610d12576040517f08c379a0000000000000000000000000000000000000000000000000000000008152600401610d0990611cc4565b60405180910390fd5b6001800154421115610d59576040517f08c379a0000000000000000000000000000000000000000000000000000000008152600401610d5090611d30565b60405180910390fd5b60058383604051610d6b929190611d80565b908152602001604051809103902060009054906101000a900460ff1615610dc7576040517f08c379a0000000000000000000000000000000000000000000000000000000008152600401610dbe90611de5565b60405180910390fd5b6009600082815260200190815260200160002060009054906101000a900460ff16610e27576040517f08c379a0000000000000000000000000000000000000000000000000000000008152600401610e1e90611bf8565b60405180910390fd5b6000610e3161122f565b9050600160058585604051610e47929190611d80565b908152602001604051809103902060006101000a81548160ff0219169083151502179055506007848490918060018154018082558091505060019003906000526020600020016000909192909192909192909192509182610ea9929190611fbc565b506006600083815260200190815260200160002081908060018154018082558091505060019003906000526020600020016000909190919091505560016003016000815480929190610efa906120bb565b91905055507f94b9b209597b37568a0fb4b924237e6e679e8e7bb88cf375dbcf4229c2d5e64281604051610f2e9190611658565b60405180910390a150505050565b60606007805480602002602001604051908101604052809291908181526020016000905b8282101561100c578382906000526020600020018054610f7f90611c47565b80601f0160208091040260200160405190810160405280929190818152602001828054610fab90611c47565b8015610ff85780601f10610fcd57610100808354040283529160200191610ff8565b820191906000526020600020905b815481529060010190602001808311610fdb57829003601f168201915b505050505081526020019060010190610f60565b50505050905090565b6000600160020160009054906101000a900460ff16158061103a575060018001544210155b15611048576000905061105b565b4260018001546110589190612103565b90505b90565b6110666110e4565b600073ffffffffffffffffffffffffffffffffffffffff168173ffffffffffffffffffffffffffffffffffffffff16036110d85760006040517f1e4fbdf70000000000000000000000000000000000000000000000000000000081526004016110cf9190611928565b60405180910390fd5b6110e18161116b565b50565b6110ec61128b565b73ffffffffffffffffffffffffffffffffffffffff1661110a610bd1565b73ffffffffffffffffffffffffffffffffffffffff16146111695761112d61128b565b6040517f118cdaa70000000000000000000000000000000000000000000000000000000081526004016111609190611928565b60405180910390fd5b565b60008060009054906101000a900473ffffffffffffffffffffffffffffffffffffffff169050816000806101000a81548173ffffffffffffffffffffffffffffffffffffffff021916908373ffffffffffffffffffffffffffffffffffffffff1602179055508173ffffffffffffffffffffffffffffffffffffffff168173ffffffffffffffffffffffffffffffffffffffff167f8be0079c531659141344cd1fd0a4f28419497f9722a3daafe3b4186f6b6457e060405160405180910390a35050565b60008061271062015f9042443360016003015460405160200161125594939291906121a0565b6040516020818303038152906040528051906020012060001c611278919061221d565b611282919061224e565b90508091505090565b600033905090565b6000604051905090565b600080fd5b600080fd5b6000819050919050565b6112ba816112a7565b81146112c557600080fd5b50565b6000813590506112d7816112b1565b92915050565b6000602082840312156112f3576112f261129d565b5b6000611301848285016112c8565b91505092915050565b600081519050919050565b600082825260208201905092915050565b6000819050602082019050919050565b61133f816112a7565b82525050565b60006113518383611336565b60208301905092915050565b6000602082019050919050565b60006113758261130a565b61137f8185611315565b935061138a83611326565b8060005b838110156113bb5781516113a28882611345565b97506113ad8361135d565b92505060018101905061138e565b5085935050505092915050565b600060208201905081810360008301526113e2818461136a565b905092915050565b600081519050919050565b600082825260208201905092915050565b6000819050602082019050919050565b600081519050919050565b600082825260208201905092915050565b60005b83811015611450578082015181840152602081019050611435565b60008484015250505050565b6000601f19601f8301169050919050565b600061147882611416565b6114828185611421565b9350611492818560208601611432565b61149b8161145c565b840191505092915050565b600060a0830160008301516114be6000860182611336565b50602083015184820360208601526114d6828261146d565b915050604083015184820360408601526114f0828261146d565b9150506060830151848203606086015261150a828261146d565b91505060808301518482036080860152611524828261146d565b9150508091505092915050565b600061153d83836114a6565b905092915050565b6000602082019050919050565b600061155d826113ea565b61156781856113f5565b93508360208202850161157985611406565b8060005b858110156115b557848403895281516115968582611531565b94506115a183611545565b925060208a0199505060018101905061157d565b50829750879550505050505092915050565b600060208201905081810360008301526115e18184611552565b905092915050565b6115f2816112a7565b82525050565b60008115159050919050565b61160d816115f8565b82525050565b600060808201905061162860008301876115e9565b61163560208301866115e9565b6116426040830185611604565b61164f60608301846115e9565b95945050505050565b600060208201905061166d60008301846115e9565b92915050565b600082825260208201905092915050565b600061168f82611416565b6116998185611673565b93506116a9818560208601611432565b6116b28161145c565b840191505092915050565b600060a0820190506116d260008301886115e9565b81810360208301526116e48187611684565b905081810360408301526116f88186611684565b9050818103606083015261170c8185611684565b905081810360808301526117208184611684565b90509695505050505050565b600080fd5b600080fd5b7f4e487b7100000000000000000000000000000000000000000000000000000000600052604160045260246000fd5b61176e8261145c565b810181811067ffffffffffffffff8211171561178d5761178c611736565b5b80604052505050565b60006117a0611293565b90506117ac8282611765565b919050565b600067ffffffffffffffff8211156117cc576117cb611736565b5b6117d58261145c565b9050602081019050919050565b82818337600083830152505050565b60006118046117ff846117b1565b611796565b9050828152602081018484840111156118205761181f611731565b5b61182b8482856117e2565b509392505050565b600082601f8301126118485761184761172c565b5b81356118588482602086016117f1565b91505092915050565b6000602082840312156118775761187661129d565b5b600082013567ffffffffffffffff811115611895576118946112a2565b5b6118a184828501611833565b91505092915050565b60006020820190506118bf6000830184611604565b92915050565b600060208201905081810360008301526118df8184611684565b905092915050565b600073ffffffffffffffffffffffffffffffffffffffff82169050919050565b6000611912826118e7565b9050919050565b61192281611907565b82525050565b600060208201905061193d6000830184611919565b92915050565b600080fd5b600080fd5b60008083601f8401126119635761196261172c565b5b8235905067ffffffffffffffff8111156119805761197f611943565b5b60208301915083600182028301111561199c5761199b611948565b5b9250929050565b6000806000604084860312156119bc576119bb61129d565b5b600084013567ffffffffffffffff8111156119da576119d96112a2565b5b6119e68682870161194d565b935093505060206119f9868287016112c8565b9150509250925092565b600081519050919050565b600082825260208201905092915050565b6000819050602082019050919050565b6000611a3b838361146d565b905092915050565b6000602082019050919050565b6000611a5b82611a03565b611a658185611a0e565b935083602082028501611a7785611a1f565b8060005b85811015611ab35784840389528151611a948582611a2f565b9450611a9f83611a43565b925060208a01995050600181019050611a7b565b50829750879550505050505092915050565b60006020820190508181036000830152611adf8184611a50565b905092915050565b611af081611907565b8114611afb57600080fd5b50565b600081359050611b0d81611ae7565b92915050565b600060208284031215611b2957611b2861129d565b5b6000611b3784828501611afe565b91505092915050565b7f566f74696e67206973207374696c6c2061637469766500000000000000000000600082015250565b6000611b76601683611673565b9150611b8182611b40565b602082019050919050565b60006020820190508181036000830152611ba581611b69565b9050919050565b7f496e76616c69642063616e646964617465204944000000000000000000000000600082015250565b6000611be2601483611673565b9150611bed82611bac565b602082019050919050565b60006020820190508181036000830152611c1181611bd5565b9050919050565b7f4e487b7100000000000000000000000000000000000000000000000000000000600052602260045260246000fd5b60006002820490506001821680611c5f57607f821691505b602082108103611c7257611c71611c18565b5b50919050565b7f566f74696e67206973206e6f7420616374697665000000000000000000000000600082015250565b6000611cae601483611673565b9150611cb982611c78565b602082019050919050565b60006020820190508181036000830152611cdd81611ca1565b9050919050565b7f566f74696e6720706572696f642068617320656e646564000000000000000000600082015250565b6000611d1a601783611673565b9150611d2582611ce4565b602082019050919050565b60006020820190508181036000830152611d4981611d0d565b9050919050565b600081905092915050565b6000611d678385611d50565b9350611d748385846117e2565b82840190509392505050565b6000611d8d828486611d5b565b91508190509392505050565b7f5468697320656d61696c2068617320616c726561647920766f74656400000000600082015250565b6000611dcf601c83611673565b9150611dda82611d99565b602082019050919050565b60006020820190508181036000830152611dfe81611dc2565b9050919050565b600082905092915050565b60008190508160005260206000209050919050565b60006020601f8301049050919050565b600082821b905092915050565b600060088302611e727fffffffffffffffffffffffffffffffffffffffffffffffffffffffffffffffff82611e35565b611e7c8683611e35565b95508019841693508086168417925050509392505050565b6000819050919050565b6000611eb9611eb4611eaf846112a7565b611e94565b6112a7565b9050919050565b6000819050919050565b611ed383611e9e565b611ee7611edf82611ec0565b848454611e42565b825550505050565b600090565b611efc611eef565b611f07818484611eca565b505050565b5b81811015611f2b57611f20600082611ef4565b600181019050611f0d565b5050565b601f821115611f7057611f4181611e10565b611f4a84611e25565b81016020851015611f59578190505b611f6d611f6585611e25565b830182611f0c565b50505b505050565b600082821c905092915050565b6000611f9360001984600802611f75565b1980831691505092915050565b6000611fac8383611f82565b9150826002028217905092915050565b611fc68383611e05565b67ffffffffffffffff811115611fdf57611fde611736565b5b611fe98254611c47565b611ff4828285611f2f565b6000601f8311600181146120235760008415612011578287013590505b61201b8582611fa0565b865550612083565b601f19841661203186611e10565b60005b8281101561205957848901358255600182019150602085019450602081019050612034565b868310156120765784890135612072601f891682611f82565b8355505b6001600288020188555050505b50505050505050565b7f4e487b7100000000000000000000000000000000000000000000000000000000600052601160045260246000fd5b60006120c6826112a7565b91507fffffffffffffffffffffffffffffffffffffffffffffffffffffffffffffffff82036120f8576120f761208c565b5b600182019050919050565b600061210e826112a7565b9150612119836112a7565b92508282039050818111156121315761213061208c565b5b92915050565b6000819050919050565b61215261214d826112a7565b612137565b82525050565b60008160601b9050919050565b600061217082612158565b9050919050565b600061218282612165565b9050919050565b61219a61219582611907565b612177565b82525050565b60006121ac8287612141565b6020820191506121bc8286612141565b6020820191506121cc8285612189565b6014820191506121dc8284612141565b60208201915081905095945050505050565b7f4e487b7100000000000000000000000000000000000000000000000000000000600052601260045260246000fd5b6000612228826112a7565b9150612233836112a7565b925082612243576122426121ee565b5b828206905092915050565b6000612259826112a7565b9150612264836112a7565b925082820190508082111561227c5761227b61208c565b5b9291505056fea2646970667358221220bde2d07081284905338cd5c640f1d7a0eccd20a433e2f1c315475cc6b856d8f764736f6c63430008140033",
  "linkReferences": {},
  "deployedLinkReferences": {}
}